:020000022000DC
:1060000000000120756302005D6302005F6302000F
:106010006163020063630200656302000000000028
:10602000000000000000000000000000D9C90200CC
:106030006963020000000000F9C902006D630200FC
:10604000418302006F630200458702006F63020014
:106050006F6302006F630200F98502006F63020044
:106060006F6302006F6302006F6302006F630200E0
:106070006F6302006F6302006F6302006F630200D0
:106080006F630200FDCA02006F6302006F630200CB
:106090006F6302006F63020061B702006F6302006A
:1060A0006F6302006F6302006F6302006F630200A0
:1060B0006F6302006F630200000000000000000038
:1060C0006F6302006F6302006F6302006F63020080
:1060D0006F6302006F6302006F6302000000000044
:1060E00000000000000000000000000000000000B0
:1060F00000000000000000000000000000000000A0
:10610000000000000000000000000000000000008F
:10611000000000000000000000000000000000007F
:10612000000000000000000000000000000000006F
:10613000000000000000000000000000000000005F
:10614000000000000000000000000000000000004F
:10615000000000000000000000000000000000003F
:10616000000000000000000000000000000000002F
:10617000000000000000000000000000000000001F
:10618000000000000000000000000000000000000F
:1061900000000000000000000000000000000000FF
:1061A00000000000000000000000000000000000EF
:1061B00000000000000000000000000000000000DF
:1061C00000000000000000000000000000000000CF
:1061D00000000000000000000000000000000000BF
:1061E00000000000000000000000000000000000AF
:1061F000000000000000000000000000000000009F
:10620000354936480A1A02D0072291438D4634494F
:1062100034480A1A06D00722914381F309880222E2
:1062200082F3148830483149314A00F044F831484B
:106230003149324A00F03FF831483249324A00F0E1
:106240003AF832483249334A00F035F83248334997
:10625000334A00F030F833483349344A00F02BF821
:1062600033483449344A00F026F83448344900228F
:1062700000F02CF833483449002200F027F8334866
:106280003349091A082902DB002202604160314AC1
:1062900090471F481F49884205D00268043003B464
:1062A000904703BCF7E700208646EC46002000211B
:1062B000294A9047FEE7884207D0521A05D0037852
:1062C00001300B700131013AF9D17047884202D098
:1062D00002700130FAE770470000012000E0002062
:1062E0000000012000000120A4E50200D82A0020BF
:1062F0003C2B0020D0630200D0630200FCD50200DA
:10630000A4E50200D82A0020D82A002000D70200E5
:1063100000D7020000D7020000D7020000D7020019
:1063200000D7020000D7020000D70200A4E5020057
:1063300008E602003C2B00203C2B00203C2B0020D8
:106340002867002028670020286700202867002091
:10635000288700209D630200ED990200FEE7FEE71A
:10636000FEE7FEE7FEE7FEE7FEE7FEE7FEE7FEE705
:1063700000F002B8FFF7FCBF0F484FF00701884359
:1063800085460E4880470E48016841F4700101605F
:10639000BFF34F8FBFF36F8FFFF732BF09480A4932
:1063A0000A4A884207D0521A05D0037801300B7090
:1063B0000131013AF9D1704700000120217C02002F
:1063C00088ED00E000D70200D82A0020D82A00205B
:1063D0007047000007B5044B0093044A402300F0C7
:1063E00032F803B05DF804FBF16302003D2B00209E
:1063F0002DE9F84388461446B2B10F4B0F4E0325E2
:10640000002743F00109224608EB0701002003F0B2
:10641000C5FC0744241A48B933782BB14FF47A40AD
:10642000C847013D02D13570BDE8F88301233370C0
:10643000002CE8D1F8E700BF00D702003C2B002079
:10644000704703F0FBBCF0B595B01D4616460846F4
:106450000C4601F077FA1A9B0D93CDE908650025EB
:106460002B46082205A920460A958DF82C500C953C
:1064700001F084FA079B0293069B03939DF8143066
:106480008DF8115003F00302012A1DD1BDF814202C
:10649000059DC3F3C203C2F383168DF81030B2001A
:1064A00008230EA9204601F069FAC5F3952508AB2B
:1064B0000093324602AB0EA9284600F033FB20467B
:1064C00001F044FA15B0F0BD022AF8D1BDF816501B
:1064D000C3F3C203C5F389158DF810300827082DC2
:1064E0002E4628BF08263B4632460EA9204601F01C
:1064F00045FAAD1B08AB02AA31460EA8374400F09E
:1065000075FB002DEBD1DAE708B5FFF79AFF0448D9
:10651000042100F071FA034B01225A7108BD00BF3B
:10652000F0D60200D82A0020037813F0040216D017
:1065300003F00303012B03D0022B09D00120704785
:106540000A6800880232C0F3831002440A60F5E74B
:106550000B684288023303EB92130B60EEE71046A0
:10656000704700002DE9F04FDFF81CA187B00F46FF
:1065700000230446861C0DF1070015468DF80730F0
:1065800000F08AFEDAF804203A60DAF8083003F501
:1065900080739B1A0AF21C470AF583690AF21448B1
:1065A000B3421AD30020002D69D004F00F039B01E1
:1065B00043F0050363F30F00DAF80430DAB2033274
:1065C00033444AF822009DF80700CAF8043000F06E
:1065D00087FE012007B0BDE8F08F0121384600F0AA
:1065E000E0FE484600F0F5FE404600F0F2FEDAF824
:1065F00008000290C0B203300AEB800002A9FFF746
:1066000093FF029B30BBDAB20AEB8202D16803919E
:106610009A1C0133DBB20AEB83030292D3F80CB06D
:1066200001F00303012B22D0022B15D083464046F4
:1066300000F0D2FE10B1029BCAF808305946384625
:1066400000F0AFFEDAF80830DAF8042003F58073C2
:106650009B1AA5E7D8B2CEE7BDF80E30C3F3891375
:1066600003334FEA1B4B02EB93030293DFE7BDF8C2
:106670000C30C3F383134FEA1B4B1344F5E7A40517
:1066800044F0060098E700BF502C0020064B074856
:1066900010B500221A7001F00EF9044610B9044832
:1066A00001F08CF9204610BD502C00205CD6020071
:1066B0003CD7020030B50A4C71B10A4A0A49121B94
:1066C000D20800239A4201D1002030BD31F8235076
:1066D000854202D00133F5E7034654F83300F4E76E
:1066E00070D60200F0D60200D82A0020094B0139EA
:1066F00003EBC000032909D8DFE801F00A02040611
:106700000420704700797047407970470020704737
:106710000220704770D6020070470000034BD3E997
:106720000130C31A58425841704700BF502C002016
:106730002DE9F04186B0FFF7F1FF0546002840F053
:10674000ED80774CC4F81804BFF34F8FA368029311
:10675000DBB2033304EB830002A9FFF7E5FE029BE3
:1067600018B1D4F81824002A5AD0DAB2991C01338F
:1067700004EB8202DBB204EB8303D268DB68049390
:1067800002F00303022B0392029154D1BDF80E30A4
:106790006448C3F38917502F3E4628BF502606F1A0
:1067A000080166F38F13C1F30901ADF80E3001F053
:1067B0009AF80546002800F09C8001F0C3F80023F9
:1067C000082203A9284601F0CFF80299CB43DBB297
:1067D0000133C9B20331B6EB830F4FEA830204EBF6
:1067E000810125D95FFA82F80823A6EB080628461E
:1067F00001F0BAF8F6B208F108034B4903F0FC03C4
:106800003246284601F0B0F8029B033703EB9707A6
:106810000297D4F81834002B43D1D4F8106453E015
:1068200062689A4294D8A260284606B0BDE8F0811A
:1068300008233246E5E7012B5BD1BDF80C3039481F
:10684000C3F38311062928BF062161F3891302319E
:1068500001F00F018900ADF80C3001F044F8054655
:10686000002846D001F06EF80023082203A928462C
:1068700001F07AF80026BDF80C20C2F38312B300B1
:10688000964203F10803C4D202994A1CC9B20331EB
:10689000029204EB81010422284601F065F80136DA
:1068A000E9E7284601F052F8FFF738FF80F00100D1
:1068B000C5B2B9E7F3685B7923B1336829461B6831
:1068C00030469847F3681E68002EF3D1284601F041
:1068D0003DF80DF107008DF8076000F0DDFCD4F8FD
:1068E00018340BB9029BA3609DF8070000F0F8FC78
:1068F000DAE7D4F8104454B90C4B0D480D49C01ACE
:10690000C008000440F0020000F05EF8CCE7236805
:1069100020469B689847E3681C68ECE7002583E7FE
:10692000502C00205CD602005C2C002070D60200A7
:1069300098D6020024D702002DE9F34704460E46FC
:10694000924601A9012218469946FFF70BFE1C4FFB
:1069500010B3019D4FF00008AA1CC84508EB0201C6
:1069600025D11848002100F0EDFC80F31000000450
:1069700040EA1440E4006B1C04F03804DBB2EDB2D2
:1069800044F0010407EB8303033544EA881444EA26
:106990008624D86047F825403B781BB1FFF7C8FE36
:1069A0000028FBD1FFF7B8FE02B0BDE8F087C9B2FE
:1069B00007EB81015AF82830CB6008F10108CCE7D9
:1069C000502C00206C30002000231A46FFF7B4BF83
:1069D00007B50123019201AAFFF7AEFF03B05DF8EE
:1069E00004FB07B5CDE9002302236A46FFF7A4FFA5
:1069F00003B05DF804FB000030B50F4CD4F8102450
:106A000003460020114631B9D96808714AB9C4F863
:106A100010340A6030BDC9680D79854206D0096816
:106A2000F1E7D26814680C601360F3E701300A28BC
:106A3000E8D14FF0FF30EDE7502C002038B5084B7F
:106A40000125D3F810441D7004B938BDE3685D71A9
:106A5000236820465B689847E3681C68F4E700BF3A
:106A6000502C002030B5C38885B004460D4633B1A4
:106A7000144A00921449154A284600F010FD217A64
:106A800005291DD0637A4BB1A088FFF72FFE104B6C
:106A9000104953F82020284600F001FD227A0E4BC1
:106AA000A08853F8222003920021FFF703FE039AE7
:106AB0000A490346284605B0BDE8304000F0EFBC67
:106AC00005B030BD68D7020050D7020048D7020099
:106AD000D4D702006DD70200F8D7020070D70200A9
:106AE00007B503460846197A052911D05B7A2BB100
:106AF000094A0A49019000F0D2FC01980849019026
:106B000000F0CDFC019803B05DF804EB00F0BCBCD4
:106B1000002AF8D0F2E700BF68D702006DD7020064
:106B2000FCDD02002DE9F04385B01F460C9D0023DB
:106B300095F80C902B7306460C469046294638462D
:106B4000FFF790FFB8F1060F09D8DFE808F004124C
:106B5000181F283340003146284600F0A0FC0022D0
:106B600029463846FFF7BCFF85F80C9005B0BDE814
:106B7000F08322683146284600F091FCEFE7D4E923
:106B800000233146284600F08AFCE8E7A36800931A
:106B90003146D4E90023284600F081FCDFE7E368B2
:106BA0000193A36800933146D4E90023284600F0FE
:106BB00076FCD4E723690293E3680193A36800930A
:106BC0003146D4E90023284600F069FCC7E7636931
:106BD000039323690293E3680193A368009331460A
:106BE000D4E90023284600F05AFCB8E708292DE92B
:106BF000F74F80460E4617461C463DD800251B7BA6
:106C00002573214610460193FFF72CFFDFF88CA077
:106C1000DFF88CB0AE4232D918F80520594620462C
:106C200000F03DFC0135082DF4D11B49DFF874A0BC
:106C3000DFF874B0204600F032FC4FF000094E45FA
:106C400024D918F809507E2D1ED8284606F0FEF8E3
:106C5000002814BF2A462E225946204600F01FFC69
:106C600009F10109B9F1080FE9D10122214638469D
:106C7000FFF736FF019B237303B0BDE8F08F514649
:106C8000204600F00CFCCDE72E22E5E751462046D9
:106C900000F005FCE4E700BF84D7020080D70200C3
:106CA0007AD7020082D7020086D70200C30710B548
:106CB00007D4F023054A4008145C234019431154BB
:106CC00010BD0901C9B20F23F4E700BF383100201D
:106CD00030B5094B1C78094B196800239C4202DC33
:106CE0000022104630BD11F83350854201EBC3023B
:106CF000F7D00133F2E700BF08310020483100200F
:106D000013B504460191FFF7E3FF38B143682BB197
:106D10000199204602B0BDE81040184702B010BDEE
:106D2000034B044819680022490800F0CFBE00BF99
:106D30000C3100201031002010B5C0B2FFF7C8FFA1
:106D40000446007801F04EFC63785A1E53425341CA
:106D5000834208D1044BD3E90023134303D1BDE898
:106D60001040FFF7DDBF10BD3031002037B54308BC
:106D7000374AD35CC2074CBF1B0903F00F0304461C
:106D80000D46042B25D8DFE803F003262F3C4000F6
:106D9000F9B10121FFF78AFF00230DF107008DF8FB
:106DA000073000F079FA0120A4F12003C4F120019A
:106DB000284A20FA01F100FA03F30B43A040D2E97C
:106DC000004120430B43C2E900039DF8070000F097
:106DD00087FA03B030BD002918BF0221204603B056
:106DE000BDE83040FFF762BF49B10321FFF75EFF06
:106DF0000121204603B0BDE83040FFF781BF0121EB
:106E0000ECE70029E5D10421E8E709B10321E5E732
:106E1000FFF74CFF29462046FFF772FF0DF10700F0
:106E20008DF8075000F038FA0120A4F12003C4F1D6
:106E30002001084A20FA01F100FA03F30B43A040B5
:106E4000D2E9004124EA000021EA0303BBE700BFC6
:106E500038310020303100202DE9F041124E134F1F
:106E600000243378A34208DC114BD3E900231343F9
:106E700018D0BDE8F041FFF753BF3D6805EBC408EB
:106E800015F8340001F0AEFB98F801305A1E534259
:106E90005341181A4142414115F83400FFF766FF8B
:106EA0000134DEE7BDE8F0810831002048310020E0
:106EB00030310020092AF7B505460C4616463ED962
:106EC00001F0C8FAE8B11F4B1F481D601F4B204F4F
:106ED0001C70204B002110221E6006F00CF81E4B87
:106EE00000200021C3E90001013CE4B20326FF2C8D
:106EF0000DD11A4A1A48002103B0BDE8F04000F055
:106F0000B7BD01F06FFA0028DDD003B0F0BD9DF8E9
:106F1000063015F834008DF8046005EBC40223F048
:106F200007038DF8063001A993788DF805303A46AD
:106F300001F09AFA013CE4B20028D8D0E5E7072036
:106F4000E3E700BF4831002038310020083100203D
:106F5000396D02000C31002030310020596E0200E2
:106F600018D8020070B5084D084E00242B789C42BA
:106F700001D3002070BD3368012113F8340001F003
:106F8000EBFA0134F2E700BF08310020483100205D
:106F90001FB50021039001AA44F20100CDE90111BF
:106FA00000F004F805B05DF804FB000038B572B6D7
:106FB000FFF744FDFFF7BCFB0028FBD1104B114C41
:106FC000114D1249E41AE408240444F00100FFF7CB
:106FD000FBFCD5F8F030DB0700D500BE0C4944F0CF
:106FE0000200FFF7F1FCBFF34F8FEA68094B02F490
:106FF000E0621343EB60BFF34F8F00BFFDE700BFBC
:1070000070D6020098D6020000ED00E01CD8020005
:1070100028D802000400FA0549B152B1531E1A40A3
:1070200007D1826001608380C260104670470E20E5
:1070300070470920704710B58468C2688388121BA6
:10704000934208D3C26813400268D154C368013325
:10705000C360002010BD0420FCE78268C3689A4228
:107060000AD08268838813400268D35C0B708368FF
:107070000133836000207047052070470648074AA7
:1070800003780749D35C012213B1043001F0BABF81
:107090000C3001F07DBD00BFE02A0020B03100209F
:1070A000743100200648074A03780749D35C01225F
:1070B00013B1043001F058BF0C3001F019BD00BF0E
:1070C000E02A0020B03100207531002037B5057866
:1070D000012D0DD0022D30D075B91F491F48FFF783
:1070E000BCFF002834D103B0BDE83040FFF7DABF61
:1070F000037A1BB9FFF7C2FF03B030BD4368184CD9
:1071000019782046FFF797FF80B18DF80050019065
:10711000144B68461B689847A168E368A2885B1A0D
:107120009A42E7D2104B01221A70E5E7A268E368A1
:107130009A42F1D08DF80000EAE7C3688DF800505C
:107140000193FFF79BFF074B68461B689847D3E7FF
:1071500003238DF80030F6E77531002064310020FC
:10716000503100204C31002060310020F0B51F4626
:10717000234B89B004461A600D4600293DD08A8809
:1071800020480968FFF748FF002834D1AA89A96878
:107190001D48FFF741FF00282DD11C4E0FCE6D4634
:1071A0000FC596E80F0085E80F0063690693237CFE
:1071B000174A18488DF81C70003B18BF01238DF842
:1071C0001430637C002B14BF0E2300238DF8153080
:1071D000E3680293A3680393236801936946636895
:1071E000009301F00DF830B90B4B18702368013390
:1071F00001D0FFF743FF09B0F0BD0720FBE700BF58
:107200004C310020503100206431002038D8020079
:10721000CD700200E02A00206031002070B5084DDA
:10722000014608482E78FFF718FF044636B10023C0
:107230002B70FFF723FF08B1FFF7AAFE204670BDB1
:10724000603100205031002010B501460E48FFF794
:10725000F2FE0446A8B90D480D4A0378D35C63B129
:10726000043001F075FE60B90A490748FFF7F5FEE2
:1072700038B9BDE81040FFF715BF0C3001F02CFC09
:10728000F1E7204610BD00BF64310020E02A002055
:10729000B03100207531002070B5EFF3108672B662
:1072A0000C4A946801239CB993600B4B0B4DD3F8A7
:1072B000801029401160C3F88050D3F884105160C9
:1072C0004FF0FF32C3F88420047006B962B670BD77
:1072D0000370FAE77831002000E100E0FC06FFBD12
:1072E000084B9A6810B55AB150B9EFF3108172B6D5
:1072F000054A1C6814605C685460986001B962B605
:1073000010BD00BF7831002000E100E001F01F0255
:107310004B090121914000EB830000F01EB801F001
:107320001F0301229A404B0900EB8300D14300F078
:107330002CB84B0901F01F0150F82300C84000F0A1
:107340000100704710B5034653E8000F0A4643E8B2
:10735000002494F0000FF7D110BD10B5034653E898
:10736000002F42EA010043E8000494F0000FF6D138
:1073700010BD10B5034653E8000F00EA010243E8D0
:10738000002494F0000FF6D110BD10B5034653E869
:10739000002F02EA010043E8000494F0000FF6D148
:1073A00010BD10B5034653E8002F02EB010043E87F
:1073B000000494F0000FF6D110BD10B5034653E859
:1073C000002FA2EB010043E8000494F0000FF6D177
:1073D00010BD0121FFF7C1BF0021FFF7CABF10B5E3
:1073E00090B1D0E9012301689B1ADBB20A60013B2E
:1073F000DBB2FF2B026802D10020107110BD1168B2
:107400004C1C14600B70F2E70E20F7E737B5054609
:1074100000240DF107008DF80740FFF73DFF2A68B3
:107420006B68116899420ED9481E106011F8013C32
:10743000EC68298A01FB0344AB6811791B1ADBB2A3
:10744000994238BF13719DF80700FFF749FF2046A6
:1074500003B030BD37B5054600230DF107000C46DB
:107460008DF80730FFF718FF2A681368591C116060
:10747000E968641A298AB4FBF1F41C709DF80700CE
:10748000FFF72EFF03B030BD826810B504462AB165
:1074900043690168006998470023A36010BD0EB4DA
:1074A00003B5039921B104AB01AA019300F076F86A
:1074B00002B05DF804EB03B070470A2938B5044602
:1074C0000D4602D10D21FFF7F8FFA3682268591C71
:1074D000A160D554D4E901329A4204D32046BDE8D4
:1074E0003840FFF7D1BF38BD2DE9F84F9846DDE9A8
:1074F0000A43154682460F460A464FF00109AA4242
:107500000FD2C14538BFC14613F0010B01D16CB990
:1075100000240126B8F1010F1BD908F1FF386E4392
:10752000F8E709F10109B2FBF5F2E8E79B070ED590
:10753000B8F1000F0CBF30262026A145E9D2013C4E
:1075400031465046FFF7B9FF002CF6D1E0E7202680
:10755000F3E7B7FBF6F39D42E1D9DFF83C80B7FBD8
:10756000F6F3504618F8031006FB1377FFF7A5FF54
:107570003346AB42B6FBF5F6F1D2BBF1000F02D0B9
:107580000CB1A14501D3BDE8F88F20215046013C44
:10759000FFF793FFF4E700BF58D802002DE9F74F3B
:1075A000054617468846002900F03E8118F8011B61
:1075B00049B92B7B002B00F03781284603B0BDE88A
:1075C000F04FFFF761BF252940F0B780002698F8FB
:1075D00000302D2B424608F1010823D0302B24D057
:1075E0002B2B25D000242A2B02F1010123D13B684B
:1075F0001A1D1B683A601C440A4613782E2B26D1AC
:1076000001324FF0000A104610F8011BA1F1300CB6
:10761000BCF1090F1DD80A2303FB0A13A3F1300A9A
:107620000246F0E746F00106D1E746F00206CEE753
:1076300046F00406CBE711F8013CA3F1300009281D
:10764000DBD80A2202FB0434303C0A46CBE74FF079
:10765000000A12F8011B01F0FB0068289046F8D0E0
:10766000782909D86F290CD8632962D022D8252916
:1076700063D0582900F0888098F80030002B95D10D
:1076800097E770390829F7D801A353F821F000BF14
:107690000378020079760200797602009977020079
:1076A0007976020077770200797602007976020017
:1076B00089770200642901D06929DDD13A68D2F8BE
:1076C0000090111D89EAE9723960A2EBE9724FF06E
:1076D000010B092A35DCD34538BFD3462CB1B9F1AB
:1076E000000F01DB720700D5013CB30702D5BAF1E8
:1076F000000F03D0F00701D44CBB0024B9F1000FF8
:107700002DDAC9F100092D212846FFF7D6FE06F033
:107710000302022A04D1BAF1000F01D11CBB0024DC
:10772000CDE9004653460A2249462846FFF7DCFECB
:10773000A2E73B681A1D19783A602846FFF7BDFE9C
:107740009AE70A230BF1010BB2FBF3F2C1E7A34561
:10775000D4D220212846013CFFF7AFFECCE77107C9
:10776000D5D52B21D0E7A345DAD230212846013CDC
:10777000FFF7A3FED2E73968CDE900460A1D3A605B
:1077800053460A220968D0E739680A1D3A60CDE9F4
:10779000004653461022F5E73B681A1D3A6016F082
:1077A0000106D3F8009024D1B9F1000F03D0484668
:1077B00005F0F6FB0646B4421DD809F1FF3919F869
:1077C000011F00293FF458AF2846FFF776FEF6E781
:1077D00028460136FFF771FE19F806100029F7D187
:1077E000A642BFF449AF20212846013CFFF765FEC1
:1077F000F6E70026F0E720212846013CFFF75DFE72
:10780000D9E73B681A1D3A60302128461C68FFF70B
:1078100054FE78212846FFF750FE00220823CDE9C8
:1078200000322146102280E703B0BDE8F08F00BF90
:107830002DE9F84FB0F806A04579D2F800B09DF8D0
:1078400028900AFB05F5043D88460BEB0301A9428D
:1078500003F1040488BFA5EB030BB4FBFAF607465B
:107860000AFB1644C2F800B04EB9AAEB04055D4508
:1078700028BF5D46BBF1000F04D1BDE8F88F3F681B
:10788000013EF1E7043408EB06003C442A46B9F116
:10789000000F0DD02146ABEB050B05F003FBDA45DD
:1078A0002E443F6855464FF0000428BF5D46E1E78F
:1078B00001462046EFE7FFF792BDF8B5467901464D
:1078C000721E0546002393422D6803D30024A6426E
:1078D00002D8F8BD0133F6E70F682846FFF7BAFD76
:1078E00001343946F3E72DE9F843068ACD1C0746F3
:1078F000FFF78CFD043E35440446B5FBF6F5F0B1C8
:107900004FF48073EDB28380C680013D07608146ED
:107910004FF00008A84512D23846FFF777FD06461B
:1079200048B163790133637108F10108C9F80000B7
:1079300007608146EEE72046FFF7BFFF344620464A
:10794000BDE8F88301210430FFF72BBD10B50121FC
:1079500004460430FFF731FDC0B220B92046BDE82F
:107960001040FFF7AABF10BD1FB50392002200927E
:1079700003AAFFF75DFF05B05DF804FB1FB5039296
:107980000122009203AAFFF753FF05B05DF804FB44
:10799000064B10B500241C70054B1C60BFF35F8FB5
:1079A0000449054800F013F8204610BD8C31002032
:1079B0009031002074D802008431002083680022B6
:1079C0005A60C3E904229A60DA601A6070470B6853
:1079D0004A684360934208BF0023016008BF4360C8
:1079E0007047436843B10268916852680B44934200
:1079F000436004BF002343607047000010B50D4989
:107A0000A1F59472914201D800200FE08C1AE30F87
:107A100003EBE4035B1002EBC30452F83330834200
:107A200005D802D204F10802ECE7606810BD2146D7
:107A3000E8E700BF80DD020008B5FFF7DFFF024B7B
:107A4000002808BF184608BD43DC020010B504F04A
:107A50007BFF037B43B1437B83F001030373BDE8EA
:107A6000104083680068184710BD00207047000070
:107A700073B504680E46154602B3237B03BB6168E9
:107A8000F1B91022204605F036FA002E0CBF012372
:107A9000002363730B4BA56018BF0122009308BF3E
:107AA0000022094823464FF47A7104F009FE0028A9
:107AB000606014BF00200E2002B070BD0720FBE7FD
:107AC0000820F9E74D7A020082D70200F0B5456838
:107AD00087B00446002D45D0067B2EBB0260EFF335
:107AE00005831BB30A46009605AB09212846059677
:107AF00004F000FE012825D104F084FA0096024625
:107B000005AB0621284604F0F5FD01281AD1059B96
:107B100043B1154B4FF080525A6040BFBFF34F8FB7
:107B2000BFF36F8F0123237300200CE002270A4666
:107B3000009704212846039304F0DCFD0128039BF1
:107B4000064602D0042007B0F0BD039304F054FAB7
:107B5000039B009702463146284604F0CBFD0128DE
:107B6000E0D0EFE70820EEE700ED00E01FB50446A7
:107B7000406830B3EFF30583D3B10022009203AB2A
:107B80000821039204F0B6FD012801D004200DE085
:107B9000039B43B10C4B4FF080525A6040BFBFF380
:107BA0004F8FBFF36F8F00232373184604B010BDAF
:107BB0000222009203211A4604F09CFD0128F2D013
:107BC000E4E70820F2E700BF00ED00E04FF080534B
:107BD000D3F83001421C04BF4FF0704393F8E00F1C
:107BE000831F5842584170474FF0704393F8E02F7D
:107BF000062A09D1D3F8E83FC3F30313033B042B50
:107C000002D8024AD05C7047002070478FDD020026
:107C1000024AD2F80034002BFBD0704700E001404C
:107C200010B5FFF7D3FF40B14FF08053944AD3F81B
:107C30002433C3F30423C2F84035FFF7D5FF10B156
:107C4000904B914A5A67FFF7C1FF48B14FF08053FC
:107C50004FF08042D3F84432C3F34233C2F83C358C
:107C6000FFF7C2FF30B1894AD2F8FC3023F08073AD
:107C7000C2F8FC30FFF7AAFF40B14FF0804300226A
:107C8000C3F80C21C3F81021C3F83825FFF7ACFF67
:107C900020B14FF080430322C3F8A025FFF7A4FFD3
:107CA00060B17B4B0522C3F810260122C3F8882659
:107CB0000022C3F818263F22C3F814264FF0805341
:107CC000D3F83021511C09BF4FF07043D3F8343141
:107CD00093F8E02FD3F8E83F08BFC3F30313062A55
:107CE0004DD1033B042B03D86A4AD35C002B46D00A
:107CF0004FF08052684BD2F80414C3F82015D2F824
:107D00000814C3F82415D2F80C14C3F82815D2F8B7
:107D10001014C3F82C15D2F81414C3F83015D2F887
:107D20001814C3F83415D2F81C14C3F84015D2F84F
:107D30002014C3F84415D2F82414C3F84815D2F817
:107D40002814C3F84C15D2F82C14C3F85015D2F8E7
:107D50003014C3F85415D2F83414C3F86015D2F8AF
:107D60003814C3F86415D2F83C14C3F86815D2F877
:107D70004014C3F86C15D2F84424C3F87025FFF7FB
:107D800025FF48B14FF080534FF08042D3F858326E
:107D900003F04F03C2F8E43EFFF718FF48B14FF07D
:107DA0008043D3F80024D20744BF6FF00102C3F828
:107DB00000244FF08053D3F83021062A0ED1D3F897
:107DC0003431033B042B02D8344AD35C33B1344AF8
:107DD000D2F83C3743F48063C2F83C372B4AD2F8E0
:107DE000883043F47003C2F88830BFF34F8FBFF37D
:107DF0006F8F4FF08053D3F83021062A0FD1D3F87C
:107E00003431033B042B02D8264AD35C3BB14FF0FC
:107E10001023D3F808224FF08043C3F858254FF0C1
:107E20001023D3F80022002A03DBD3F80432002BFE
:107E300022DA1D4901234FF01020C1F80435152422
:107E4000FFF7E6FEC0F80042FFF7E2FEC0F804428A
:107E5000FFF7DEFE0023C1F80435FFF7D9FEBFF3BC
:107E60004F8F0A49114BCA6802F4E0621343CB609A
:107E7000BFF34F8F00BFFDE70D4B0E4A1A6010BDD8
:107E80000030014000C007400DF0ADBA00ED00E049
:107E90000050004080DD020000C0004085DD02008F
:107EA000001000408ADD020000E001400400FA05F5
:107EB000F42A00200090D003054A4FF0A043105C44
:107EC000D3F8043523FA00F0C04300F001007047F6
:107ED00098DD0200044B1A5C012393404FF0A0424E
:107EE000C2F80C35704700BF98DD0200044B1A5CE5
:107EF000012393404FF0A042C2F80835704700BFFD
:107F000098DD020008B50020FFF7F0FF0120FFF721
:107F1000EDFF0220FFF7EAFFBDE808400320FFF76E
:107F2000E5BF08B50020FFF7D5FF0120FFF7D2FF1E
:107F30000220FFF7CFFFBDE808400320FFF7CABFCC
:107F4000074A4FF0A041105CD1F80435012282406D
:107F500022EA03001340C1F80805C1F80C35704748
:107F600098DD0200054A4FF0A043105CD3F81035AD
:107F700023FA00F0C04300F00100704794DD0200D6
:107F80000D2809D00E2809D00F2809D010280CBFC1
:107F900003204FF0FF3070470020704701207047EA
:107FA00002207047014B185C704700BF94DD02004F
:107FB000C20708B501460CD54FF0A0430322C3F811
:107FC0004427C3F84827C3F84C27C3F85027FFF7C6
:107FD00099FF8B070AD54FF0A0430C22C3F8342732
:107FE000C3F83827C3F83C27C3F8402708BD000072
:107FF00038B5074C051E04F1080318BF1C4623685A
:108000002BB11A6822605B6828469847F7E738BDAD
:108010009C31002020B9054B01225A70FFF7E8BFC0
:10802000012802D1014A9070F8E77047943100208E
:1080300020B9034B01225A70FFF7DABF704700BF27
:108040009431002038B50E4C2378B3B90D486360E5
:10805000A3602361E36000F01BF9054603F0F0F92B
:1080600008B900F021F901232370074BD3F800343D
:108070000BB10123A370284638BD8525F5E700BF65
:1080800094310020158002000000014037B5184CE3
:10809000A378054603F0FF029BB110B143680120AD
:1080A000984700230DF107008DF80730FFF7F4F82B
:1080B000E3689DF807000133E360FFF711F903B0AF
:1080C00030BD0DF107008DF80720FFF7E5F825B169
:1080D000226913463BB92A602561E368002BE7D18A
:1080E00000F0F4F8E4E79D42F7D01B68F2E700BF28
:1080F0009431002037B50D4C00230DF107008DF8A9
:108100000730FFF7C9F8E368013BE360E36833B980
:10811000074BD3F8005415B900F000F9A5709DF88D
:108120000700FFF7DDF803B030BD00BF9431002039
:1081300000000140012813B50CD0032820D038B925
:10814000134B0122C3F88020BFF34F8FBFF36F8F13
:1081500002B010BD0F4C00230DF107008DF8073061
:10816000FFF79AF823780BB9FFF76CFFE3689DF8E7
:1081700007000133E3600123A370FFF7B1F8E7E7DD
:1081800000F092F802B0BDE81040FFF7B3BF00BFA7
:1081900000E100E0943100201FB503788DF8003035
:1081A0004368019383688DF80830C368054A0393D8
:1081B000054B684653F8213052F82110984705B016
:1081C0005DF804FBA8310020AC3100201FB5037816
:1081D0008DF800304368019383688DF80830C368D8
:1081E000054A0393054B684653F8213052F8211095
:1081F000984705B05DF804FBA8310020AC310020A1
:10820000F0B5194B90F800C091F81DE043F82C2010
:10821000164B16460A6943F82C20154B03F80CE060
:108220000C4607460FCC89B06D460FC594E80F0089
:1082300085E80F00CDF810C0BEF1000F09D0002E68
:108240000C4A694608BF3246381D00F0BFFD09B030
:10825000F0BD002E084A694608BF324607F10C00FF
:1082600000F086FBF3E700BFAC310020A83100200E
:10827000B031002099810200CD81020000F18040E0
:10828000002382B0036003680193019B02B0704732
:10829000044A137923B90121106091801846704770
:1082A00085207047B4310020074B1A68D20704D4E8
:1082B000C02283F8002301221A604FF0804301227C
:1082C000C3F81825704700BF00E100E038B54FF44F
:1082D0008270FFF7D3FF4FF080430222C3F80423DC
:1082E0000C4AD2F8FC0040F08073C2F8FC300A4B14
:1082F0001C6844F0010119605D685968491BB1F5BB
:108300000A5FFAD31C604FF08043C2F8FC000122E0
:108310009A6038BD00ED00E0001000E04FF08042B0
:1083200008B50223C2F808334FF48270FFF7A6FFA6
:108330000123D360D2F81834DB03FBD408BD00005E
:108340004FF0804110B5D1F8003163B14FF4807027
:10835000FFF794FF0D4B58790122C1F8082310B99B
:108360005A711B6898474FF08042D2F8043163B1CC
:108370004FF48270FFF782FF0223C2F80833034BE9
:10838000BDE810401B680120184710BDB431002023
:1083900000F1804000F5C040002382B00360036814
:1083A0000193019B02B07047800000F1A040D0F81B
:1083B000002722F44032C0F80027D0F8003743EA03
:1083C0000141C0F800177047054B4FF0FF320728F6
:1083D00043F8202084BFC01880F84820704700BFB1
:1083E000BC31002010B5184991F8583053BB4FF0FC
:1083F000FF3222FA03F0C00748BFC81803F1010397
:1084000048BF80F83020202BF3D10024E0B20134A3
:10841000FFF7DAFF0C2CF9D10C4B0022C0204A6583
:1084200083F80603402018604FF4BE70FFF7B0FFDA
:10843000074B4FF00040C3F80403012381F8583084
:10844000104610BD0820FCE7BC31002000E100E030
:1084500000600040034B93F85800003818BF01201B
:10846000704700BFBC310020F0B5394E331893F986
:108470003030002B69DA8D78C5F34005002D0BBF35
:10848000082300230C240824A34201D10420F0BDBA
:1084900056F82370013743D137185CB246F82320D1
:1084A00087F8304015B9F21882F848008A785507E5
:1084B00016D4D70736D5820002F1A042D2F8005771
:1084C00025F00205C2F80057224FC50800F0070C3E
:1084D000012202FA0CF217F805C042EA0C027A55A2
:1084E0008A780D7812F0020225D09B0003F18043B8
:1084F00003F5C0430002D3F8102522F4473222F4DA
:108500004072C3F810252D04D3F8102500F4F8505C
:1085100005F4403528431043C3F810050020B6E7A2
:108520000133B1E74D7800F5E0724FF0A047AD00A0
:1085300047F82250C8E7083C46FA84F494F8500003
:1085400040EA851584F85050E8E708209FE700BF0F
:10855000BC3100201032002038B5204C251895F988
:108560003020072A18DD083A44FA82F494F8503093
:108570009B09032B0BD14FF0A043D3F81015C1403A
:1085800001F001010231BDE83840FFF70DBF012BBA
:108590000CBF02210321F6E7D3B2072B1DD89300AD
:1085A00003F1804303F5C043D3F8100540F0010008
:1085B000C3F8100502F1400040B2800080B2FFF71E
:1085C000E7FE51B195F9303054F823302BB1012337
:1085D00003FA02F2024BC3F8042338BDBC31002079
:1085E000006000404FF0A043D3F8103523FA00F0AC
:1085F00000F00100704700002DE9F74F00244E4DB8
:1086000001944FF48072012102F1804303F5C043CD
:1086100090B21B68012B06D1D5F804330B4202D06F
:10862000FFF7B6FE0C430432B2F5907F4FEA4101EA
:10863000EAD1414BD3F87C31012B0CD14FF4BE7001
:10864000FFF7A6FE4FF0A04344F00044D3F82025E6
:108650000192C3F82025E3B2D3B1384F002501269B
:10866000344210D0AB0003F1804303F5C043D3F88C
:108670001005D3F8101557F8253023B1C1F3014187
:10868000C0F3042098470135082D4FEA4606E7D18C
:10869000002C48DA294D4FF0A048294E4FF0000930
:1086A000012716F9013B5A1C31D0C3F3C20208322C
:1086B0006A44DCB212F8042C03F03F0A03F007030B
:1086C00007FA03F31A4222D00AF5E073504658F82D
:1086D0002330C3F3014BBBF1020F0CBF0321022176
:1086E000FFF762FE07FA0AF3C8F8203505EB0A0324
:1086F00093F9303055F823304BB1A109032904D048
:10870000BBF1020F12D1012901D15046984709F15E
:108710000109B9F1040FC4D1D8F820350193C8F884
:108720002035002BB9D103B0BDE8F08FBBF1030FAA
:10873000EDD10229E8E700BF00600040BC31002015
:108740000C320020014B1B68184700BF1832002074
:108750000E4B984237B50C4602D0002003B030BD16
:1087600000230DF107008DF80730FEF795FD084B4B
:108770001D7915B901221C601A719DF80700FEF7DA
:10878000AFFD002DE9D01120E8E700BF0020004038
:10879000183200200023435082B043580193019BBC
:1087A00002B070470A4610B54FF48E71FFF7F2FF22
:1087B000136A9168C95C136A01331362C0F81C150F
:1087C00010BD024608B500684FF49271FFF7E2FF52
:1087D00010684FF48471FFF7DDFF136801221A60FF
:1087E00008BD8B690A4610B54FF4847123B9FFF7B1
:1087F000D1FFD0F8183510BDFFF7CCFF536AD16810
:10880000D0F81805C854536A01335362F3E70000E7
:108810001FB501238DF80030044BCDE90110D3E9D9
:1088200000126846904705B05DF804FB2032002036
:1088300030B54D4DD5F804339A0585B051D5D5F8EE
:108840002431002B4DD04FF492712846FFF7A2FF40
:108850004FF40173C5F80833444B93F829200AB943
:1088600001226A60404902228DF80020D1F880245C
:10887000C1F8802403929A690292DA680192002278
:10888000C3E906226846D3E9001290473648D0F87B
:108890001C315BB1354A5169136A99424DD992F83E
:1088A0002830002B49D11146FFF77CFF2E48D0F825
:1088B0004431002B56D04FF4A271FFF76BFF2B4BC6
:1088C00093F829200AB1012202609A69002A49D04E
:1088D000586AD96800229A6105B0BDE83040FFF7B8
:1088E00097BFD5F804335B07D0D5D5F80831002BF6
:1088F000CCD01E4C1C482146FFF773FF636AA26967
:108900009A42C3D1E369E1684BB1A3612369E36093
:108910000023606AE3616362FFF77AFFB6E794F8C9
:1089200029300BB901236B600F4B4FF40172C3F870
:1089300008230023606AA361EEE70B484FF48E71B1
:10894000FFF728FF5369002BB0D051690291002333
:1089500091688DF80030019153616846D2E90013A7
:108960009847A3E705B030BD00200040203200202A
:108970002DE9F843534D90F804802C2303FB085352
:10898000064693F82A300C469146002B40F096801C
:108990004D490068FFF7DCFE0746002840F0908054
:1089A00022683068511C0BD04FF0A0410123934046
:1089B000C1F8083502F5E0734FF0030C41F823C00D
:1089C00061684B1C1FBF01F5E0734FF0A04C4FF0E6
:1089D000000E4CF823E0A369C0F8243594F814C0C5
:1089E000637DBCF1010F4CEA0303C0F86C35C0F89D
:1089F0001415C0F80C251DD1A268531C1FBF02F529
:108A0000E0734FF0A0414FF0000C41F823C0E36841
:108A1000591C0BD04FF0A04C01219940CCF80815FF
:108A200003F5E0714FF0030E4CF821E0C0F8083573
:108A3000C0F810252C2202FB08F2AB18C3F80490F2
:108A40002369AB50B9F1000F20D04FF48E71247F11
:108A5000FFF7A0FE4FF4A2713068FFF79BFE32686B
:108A60001A4BC2F80433130B42F307326101002A98
:108A7000C9B21EDB1648841884F80013012152097C
:108A800003F01F0301FA03F340F822303368042295
:108A9000C3F800252C2303FB08530022C3E9062258
:108AA00083F829205A61012283F82A203846BDE83C
:108AB000F883084A03F00F03D154E7E70827F5E7E6
:108AC0001127F3E7203200203188020080000200E5
:108AD00000E100E014ED00E00279044B2C2101FBE1
:108AE00002335869003818BF012070472032002037
:108AF0002DE9F84F064690F8048089469246FFF724
:108B0000EBFF044600283CD1204F2C2508FB057BB9
:108B10004FF48E71CBF814A0CBF80890CBF820005E
:108B20008BF828003068FFF735FE3068012383603A
:108B30005946FFF737FEDBF804305D461BBB306853
:108B4000DBF814402B6A9C4211D83368D3F81C21FF
:108B5000002AFBD00122DA6000202C2303FB0877D7
:108B600000237B61BDE8F88F95F828303BB9D0F839
:108B70001C31002BF8D05946FFF714FEE2E70F2016
:108B8000EBE71120EEE72046ECE700BF20320020A3
:108B90002DE9F0473A4D07792C2303FB075306468E
:108BA0005C6824B103684FF40170C3F808032C23F8
:108BB00003FB0753986950B1D869002841D024B10C
:108BC00033684FF40172C3F80423112436E09A612C
:108BD000D9605862D8612C2303FB075393F82930DE
:108BE0001BB910B93046FFF7ECFD4FF02C0808FB1D
:108BF000075A3068DAF80430002B37D14FF4A271ED
:108C0000D046FFF7C7FD3068D0F82491D0F808317E
:108C1000D0F84441CBB914B9B9F1000FF3D02C23EB
:108C200003FB07550023AB61B9F1000F24D12CBB26
:108C300095F8291033680122B1B11A602046BDE8C9
:108C4000F0871961DA610120C5E7B9F1000FE6D1BB
:108C5000002CE4D14146FFF7C4FDDAF82430DAF8FD
:108C600018209A42CFD8DAE75A60E7E74FF4017349
:108C7000C0F804330024E1E70324DFE70F24DDE735
:108C8000203200200023435082B043580193019BBF
:108C900002B070471FB501238DF80030044BCDE9B9
:108CA0000110D3E900126846904705B05DF804FB57
:108CB0004C3200207FB5434AD2F82461002E60D0A8
:108CC00010464FF49271FFF7DDFF02238DF800305C
:108CD000D2F88034C2F880340393D2F83C35029342
:108CE000394BDA6801920022C3E906226846D3E9CB
:108CF000001290473348D0F8443173B14FF4A27159
:108D0000FFF7C0FF304B9A693AB10022C3E906224F
:108D1000D968D0F83C05FFF7BDFF2A48D0F82031CC
:108D2000ABB14FF49071FFF7ADFF0123C360264B49
:108D30005A6962B1D0F84C150291002299688DF8F9
:108D4000002001915A616846D3E9001290471D48FE
:108D5000D0F858319BB14FF4AC71FFF793FF1A4B29
:108D60005A6962B1D0F84C150291002299688DF8C9
:108D7000002001915A616846D3E90012904704B07F
:108D800070BDD2F81031002BB4D04FF4887110466A
:108D9000FFF778FF0C4BD2F83C0599698842A9D1BE
:108DA000DC69D96864B1D2F8005225F02005C2F818
:108DB00000521A699C61DA60DE61FFF76BFF99E788
:108DC0009C61FAE7002000404C3200202DE9F84376
:108DD0005A4E90F80480242303FB0863044693F85A
:108DE00020300D469146002B40F0A3805449006886
:108DF000FFF7AEFC0746002840F09D802A682068F7
:108E0000511C0BD04FF0A04101239340C1F808350D
:108E100002F5E0734FF0030C41F823C069684B1C66
:108E20001FBF01F5E0734FF0A04C4FF0000E4CF85F
:108E300023E0AB69C0F8243595F814C06B7DBCF114
:108E4000010F4CEA0303C0F86C35C0F80C25C0F8DC
:108E500014151DD1AA68531C1FBF02F5E0734FF013
:108E6000A0414FF0000C41F823C0EB68591C0BD017
:108E70004FF0A04C01219940CCF8081503F5E071A2
:108E80004FF0030E4CF821E0C0F80835C0F810256B
:108E9000242202FB08F2B318C3F804902B69B350E4
:108EA000B9F1000F2FD04FF488712A7FFFF7EAFE47
:108EB00020684FF49071FFF7E5FE20684FF492713F
:108EC000FFF7E0FE20684FF4A271FFF7DBFE4FF4DE
:108ED000AC712068FFF7D6FE23681A49C3F8041363
:108EE000190B43F307335201002BD2B21CDB164897
:108EF000C51885F8002301225B0901F01F0102FA61
:108F000001F140F8231023680822C3F80025242328
:108F100003FB08660023C6E906337361012386F864
:108F200020303846BDE8F883084B01F00F015A5451
:108F3000E9E70827F5E71127F3E700BF4C320020E7
:108F4000B58C02001003420000E100E014ED00E0E7
:108F50000279044B242101FB02335869003818BF01
:108F6000012070474C32002001F06043B3F1005FF4
:108F70002DE9F0470646884692463BD190F804908A
:108F8000FFF7E6FF0446002836D11D4F3068242540
:108F900005FB09754FF49071C5F814A0C5F8088059
:108FA000FFF770FE4FF4AC713068FFF76BFE33686B
:108FB0006A69A968C3F84415C3F8482501229A6074
:108FC0006A68DAB9D3F82021D3F858011AB9002811
:108FD000F8D00F2007E00028FBD10122DA60D3F897
:108FE0005821002AFBD0242303FB097700237B614F
:108FF000BDE8F0871020FBE71120F9E72046F7E7EE
:109000004C320020F8B501F06043B3F1005F044634
:109010000F465ED10379304D242101FB035149688D
:1090200021B100684FF40476C0F80863242000FBE7
:1090300003539E6956B1D869002839D021B12368FD
:109040004FF40472C3F80423112030E09A61DF600A
:10905000DE6120684FF48871FFF714FE20684FF43A
:10906000A271FFF70FFE2368C3F83475C3F83825E3
:1090700016BB01221A602479242202FB0452526892
:109080000ABBD3F81011D3F84421D3F824011143BB
:1090900002D10028F5D00A46242303FB04550023FF
:1090A000984218BF03209A42AB6118BF0F20F8BD49
:1090B0001F61DA610126CCE7D3F8002242F02002DA
:1090C000C3F80022D7E74FF40472C3F8042300204A
:1090D000EDE71020EBE700BF4C3200200220FEF746
:1090E0002FBF00002DE9F04780460D46FEF748FFF0
:1090F0000328044610D8012D10D0022D30D05DB9C0
:109100001A48FEF733FD1A4B04EB440213449D78D2
:10911000184B1B5DAB4219D0BDE8F087144E00EB35
:109120004003F218F55C5378470053B1DFF84C90D8
:109130000E484A464FF48061FEF7C8FC08B989F82A
:10914000008027443E440B4BB2781A55002DE3D0E3
:10915000094B1B68002BDFD02846BDE8F0471847B5
:1091600000EB4004024804446578EFE794320020A5
:10917000D4320020ED320020E8320020703200208E
:1091800000780221FFF7AEBF08B5094B1B7853B139
:109190000020FEF7ABFE0120FEF7A8FEBDE8084068
:1091A0000320FEF7A3BEBDE80840FEF7ABBE00BF3C
:1091B0007132002070B5724C237805461BB1002334
:1091C0002370FFF7E1FF172D7DD8DFE805F00C17BE
:1091D000173B4C5D6D767E837E838B909090909054
:1091E000B4B9C1C9D4D4FFF7CFFF6648FEF7BEFCBF
:1091F000654B002204461A70204670BD0020FEF721
:109200005BFEB8B10020FEF771FE022D0CBF4FF4DB
:10921000E1614FF47A615C4B1D708902002201F517
:10922000FA714FF47A73B1FBF3F1BDE87040554821
:10923000FEF74CBCFEF74EFE022D0CBFC8214FF4CA
:10924000C871E8E70020FEF737FE40B10020FEF7C6
:109250004DFE4FF448714C4B03221A70DDE7FEF7C8
:1092600039FEC821F7E70020FEF726FE38B10020BE
:10927000FEF73CFE4FF47A61434B0422EDE7FEF724
:1092800029FE4FF4C871F7E70020FEF715FE40B144
:109290000020FEF72BFE3C4B05221A70CD21002248
:1092A000C3E7FEF717FEF6E70020FEF749FE364B50
:1092B00006221A7000226621B7E70020FEF70AFE98
:1092C000314B07221A70002496E701202070FEF728
:1092D00037FEEFE701202070FEF732FE00224FF448
:1092E0000071A2E7FEF71DFE274B0C22EAE7274894
:1092F000274EFEF73BFCD5F11105044616D0A8B960
:10930000012D0DD04FF448314D43024605F5FA7555
:109310001E484FF47A71B5FBF1F1FEF7D7FB044616
:109320000220FEF7D7FD0123337065E70220FEF728
:10933000DDFD0023F8E7FFF727FF134B1222C1E7FB
:10934000FFF722FF0020FEF7C5FD0F4B1322B9E700
:10935000FFF71AFF0120FEF7BDFD0B4B1422B1E70A
:10936000FFF712FF0020FEF7B5FD0120FEF7B2FD6A
:10937000054B1522A6E7FEF7D4FD034B1D70A2E7AF
:10938000E4320020B4320020EC320020743200209D
:1093900071320020044B1B68DB0703D5034B1878A0
:1093A000FFF708BF704700BFE0320020EC3200201A
:1093B00010B5002914BF03240024FEF7F3FD80003C
:1093C00000F1A040D0F8002722F44032C0F8002776
:1093D000D0F8003743EA0443C0F80037002010BD3E
:1093E000032801D8FEF7BEBD00207047044B1B6860
:1093F00013F0010301D0FFF7DDBE1846704700BF30
:10940000E032002038B51C4B18601C4B10F00204F1
:109410000546196019D01A4B1A480E221A700F22ED
:10942000DA7010229A7111225A7204213322FDF748
:1094300041FD044648B9FDF795FD044628B90146AB
:10944000114A1248FEF714FB0446EB0711D5012020
:10945000FEF7AEFD6CB921460D4A0E48FEF708FB3B
:10946000044630B9BDE838400B4A0C480121FEF7EC
:10947000FFBA204638BD00BFE0320020E8320020AD
:10948000D4320020BCDD020081910200E0DD020048
:1094900095930200E4DD0200DD900200DCDD0200B5
:1094A000032811D8012A0AD101290FD100F10E0297
:1094B000D2B20D4B00EB40001A5400207047012936
:1094C000F7D0022904D049B1072070470022F8E7FD
:1094D000054B00EB400018444270EEE7024B00EBF6
:1094E000400018448270E8E7D4320020032802D8F4
:1094F0000121FFF75DBF0620704708B50122022158
:109500000020FFF7CDFF08B1072810D10722022164
:109510000120FFF7C5FF08B1072808D100210A2262
:109520000846FFF7BDFF10B1072808BF002008BD9F
:109530000388102B10B502D0112B1ED010BD1A4C71
:109540002168B1B901220846FFF7AAFF08B1072830
:1095500024D1072202210120FFF7A2FF08B107282A
:109560001CD1042202210020FFF79AFF08B107282E
:1095700014D1236801332360E0E70B4A1368013BF1
:109580001360002BDAD1FFF7B8FF0028D6D0074BC5
:109590001B68002BD2D0BDE810401847034B1B6856
:1095A000002BE6D09847E4E7F8320020F4320020A0
:1095B00008B50020FFF79AFF08B1062806D1012060
:1095C000FFF794FF10B1062808BF002008BD000077
:1095D0000D4B10B518600C4629B10120FFF700FFB4
:1095E00040B102232370094B1B6853B9BDE81040FA
:1095F000FFF783BFFFF7F4FE08B10B23F2E72070FB
:10960000F1E7002010BD00BFF4320020F832002046
:1096100076DF70477ADF70477CDF70477FDF704707
:109620008FDF7047B1DF704733DF7047034A13683D
:1096300002331360024B01221A707047242B002062
:10964000F0330020034A136802331360024B0122F7
:109650001A70704758390020F1330020FDF798BC8C
:1096600008B50020FFF7C2FE08B1FDF791FCFFF737
:109670009FFF08B1FDF78CFCFFF7D6FF18B1BDE8DE
:109680000840FDF785BC08BD08B50548032100F07A
:1096900008FF18B1BDE80840FDF77ABC08BD00BF5F
:1096A000F433002008B5084C084E094D2378002BF0
:1096B000FCD03168284600F0C3FB00230120237052
:1096C00002F094FDF2E700BFF1330020583900208A
:1096D000E8DD020008B5084C084E094D2378002B40
:1096E000FCD03168284600F0ABFB0023012023703A
:1096F00002F07CFDF2E700BFF0330020242B0020B5
:10970000FFDD02000388212B13B504463FD007D8A4
:10971000112B2DD0132B48D0102B0CD002B010BD24
:10972000522B4AD0562B01D03B2BF7D1A0881321C6
:10973000FFF76EFF15E0254B25482649C01AC008E3
:10974000000440F00300FDF73FF90720FFF74EFE4D
:1097500008B1FDF71DFC204BA1882048198001F0BD
:109760003DFC0028DAD002B0BDE81040FDF710BC87
:10977000164B17481A49C01AC008000440F00300ED
:10978000FDF722F9144B4FF6FF721A80C6E700234B
:1097900080888DF8043001A98DF80530FFF740FF6F
:1097A0000028BBD0FDF7F4FBB8E70B4800231A46AE
:1097B00085210088FFF732FFD3E7074800231A46C8
:1097C00019460088FFF72EFFCBE700BF70D60200D6
:1097D00098D6020016DE0200FE2A00204038002043
:1097E00020DE020008B503784BB9054B3B211888F1
:1097F000FFF70EFF18B1BDE80840FDF7C9BB08BD73
:10980000FE2A0020072808B513D00A280DD0042806
:1098100019D10D4B13211888FFF7FAFE30F0080319
:1098200011D0BDE80840FDF7B3BBBDE80840FFF725
:1098300017BF054B1A884FF6FF739A4203D10348AE
:1098400000F06EFFEAE708BDFE2A0020F433002096
:1098500008B548B103280BD10220FFF7C7FD38B186
:10986000BDE80840FDF794BBBDE80840FFF7F8BE2F
:1098700008BD0000F7B50378012B33D0022B31D09F
:1098800073BB1B4C1B4D20782844FDF7C7FC237885
:109890000133DBB21D44237015F8012C0A2A05D0D0
:1098A0000D2A03D0144A12889A4219D8012B15D9CF
:1098B000124D104E124F2378ADF806300DF106020E
:1098C0002B883146384601F001FD082806D01328C0
:1098D000F1D0052802D008B1FDF75AFB0023237010
:1098E00003B0F0BD406803B0BDE8F040FDF750BBE9
:1098F000F2330020FC320020FC2A0020FE2A002047
:10990000002B00202DE9F0410578064645BB154C9B
:10991000154BDFF85880E41AE408240444F00104ED
:10992000B28A95420AD33369134413F8013C0D2BD4
:1099300016D10A20FDF788FC1128F9E73369585D34
:10994000FDF782FC074648B11128F7D00246414690
:109950002046FDF73DF83846FDF71AFB0135DFE7F5
:10996000BDE8F08198D6020070D602002DDE02001C
:109970000D4B4A881B889A4214D10A8840F67723F7
:109980009A420FD18B88094A09480A49033B9BB286
:109990001380094A801AC00800041A4640F00300E8
:1099A000FDF71FB8704700BFFE2A0020FC2A0020E8
:1099B00098D6020058DE020070D60200FDF7E8BA21
:1099C00008B50849084801F0E9F908B1FDF7E0FADF
:1099D0000548F72101F0F6F918B1BDE80840FDF798
:1099E000D7BA08BD719902002838002000B5904D03
:1099F0000FCDB3B007AC0FC495E803008D4B8E4A72
:109A000003934FF4807384E80300CDE905230493A6
:109A10008A4A072303A907A8FDF7A8FB08B1FDF7A9
:109A2000B7FA4FF400410020FCF730FE08B1FDF713
:109A3000AFFAFCF769FDFEF718F808B1FDF7A8FAD0
:109A40007F4B0093012200234FF47A717D487E4CB6
:109A50007E4D02F035FE7E4B2060012200937D4852
:109A600000234FF47A7102F02BFE2368286003B1C3
:109A700010B90420FDF78CFA77490320FFF7C2FCE8
:109A800008B1FDF785FA07A90020FFF7A1FD08B18D
:109A9000FDF77EFAFDF77CFF08B1FDF779FA01F0DA
:109AA00091FC08B1FDF774FA002307A90120079380
:109AB00001F018FD08B1FDF76BFA07A801F0D2FD1F
:109AC00008B1FDF765FA112364498DF80C300B22BB
:109AD00003A8FFF7A1FD08B1FDF75AFA0023ADF87E
:109AE00020301023ADF81C303C23ADF81E3007A801
:109AF0004FF4C873ADF82230FFF78CFD08B1FDF7C5
:109B000047FAFFF75DFF564B5648079307A901F048
:109B100053FA08B1FDF73CFA534B5448039303A999
:109B200001F05AFB08B1FDF733FAAC22002107A877
:109B300003F0E1F902238DF81C3006238DF81F3065
:109B40000123ADF868308DF898304023484A2993B6
:109B50004848494B1B9207A9309300F025FC08B1F7
:109B6000FDF716FA4348012100F01BFC14220021E6
:109B700007A803F0C0F94FF4F0434FF4A052CDE929
:109B8000082303238DF828303C4B0C9307A83C4B4B
:109B90000D9300F0E3FE08B1FDF7FAF9394B01939C
:109BA000022300933849394800234FF4807202F0B1
:109BB00015F9012802D00420FDF7EAF9344B01938E
:109BC000012300933349344800234FF4807202F09C
:109BD00005F9012802D00420FDF7DAF9246802F023
:109BE0000BFA02230246009301210023204602F0D3
:109BF00081FD012802D00420FDF7CAF92C6802F08B
:109C0000FBF902230246009301210023204602F0C3
:109C100071FD012802D00420FDF7BAF91F48002188
:109C200001F0B8FD02F0B0F90F20FDF7B1F9FBE744
:109C300098DE020054380020603900207598020038
:109C40002D96020074DE0200543900205C39002099
:109C5000459602007ADE02000598020080DE0200CE
:109C60005D9602004038002005990200002B00207C
:109C7000F82A0020F433002051980200E5970200F2
:109C8000BD9902004C3800208CDE0200D5960200FF
:109C90005038002092DE0200A5960200899602004C
:109CA0000369C26893429CBF80681B18013B981AE5
:109CB00070472DE9F843D0E902940546A9EB040862
:109CC0004068904520440F46144404D903F0EAF854
:109CD000EC60BDE8F8834246A4EB090403F0E2F827
:109CE0006868224607EB0801F0E72DE9F843C568EC
:109CF0000646894617464FF000083469B368706815
:109D0000A54228BFE418013C621B5C1BBC4228BF73
:109D10003C46944228BF144649462844224603F054
:109D2000C1F8B3682544AB4208BF00253F1BA044DF
:109D3000A144F560E1D14046BDE8F88310B5114C6F
:109D4000114AA2610223C4E90433104BE361A26407
:109D50004FF400730E4A0F492362E264002310227D
:109D6000E01DA3626362E362A3656365E365226548
:109D700003F0F4F80849204603F0F0F82023A3711B
:109D800010BD00BF603A0020B0DE0200E83A0020BB
:109D9000D83A0020B9DE0200BDDE020070B5164BD5
:109DA000182400FB04451D4404FB00331646DC6AFE
:109DB000012C0ED0022C18D0E4B92846FFF770FF12
:109DC000864204D832462846FFF773FF34462046C1
:109DD00070BD2846FFF764FF8642344628BF04461C
:109DE00022462846FFF765FFF1E72846BDE87040A8
:109DF000FFF77BBF0024EAE7603A002073B50E4B03
:109E00001B7804460D4616460BB9FFF797FF002353
:109E10000DF107008DF80730FDF73EFA324629466E
:109E20002046FFF7BBFF04469DF80700FDF758FAF0
:109E3000204602B070BD00BF603A0020FFF77EBF31
:109E40000FB410B5A2B024AB802153F8042B0193BA
:109E500002A803F017F8802804460ADD802202A930
:109E60000020FFF7CBFF204622B0BDE8104004B031
:109E700070470028F7DD0246F1E76DDF704779DFB4
:109E800070477DDF704764DF70472DE9F04F85B084
:109E900000250E9CBDF83CB0B4F800A00191074627
:109EA00090461E46A9463A884A450DDC45B12388AE
:109EB000013BA3EB0A039BB2FF2B3AD806F80A300A
:109EC000002005B0BDE8F08F7A6852F829000390B1
:109ED00000220DF10B0103A8FFF7D5FF0028F0D1F8
:109EE0009DF80B20424521D12288002D14BF00206F
:109EF000022002EB0801014459451ADC3DB9013248
:109F000092B2019B2280B35422880132228022889F
:109F10000DF10B01324403A8FFF7B5FF0028D0D1A3
:109F200021889DF80B200A442280012509F10109AE
:109F3000B9E70C20C5E72DE9F341089FBDF824805F
:109F40001546CDE90078022204461E46FFF79DFF24
:109F500050B93346102229462046CDE9087802B090
:109F6000BDE8F041FFF791BF02B0BDE8F0812DE9F7
:109F7000F04F00231788138090F82D3085B00646E7
:109F80000D4614465BB3082F01D80C2028E102A827
:109F9000FFF773FF002840F023812388DDF80910C4
:109FA0000822EA54238801339BB21B222380EA54FF
:109FB000238801339BB2EA182380E950BDF80D30A5
:109FC000938023889DF8082006339BB212F0FE028E
:109FD00018BF01222380EA54238801332380B378F9
:109FE000FBB123880433BB42CFD802A8FFF747FF59
:109FF000002840F0F58023880322EA5423880133A7
:10A000009BB219222380EA542388BDF8082001332B
:10A010009BB2E9182380EA54120A4A70238802335B
:10A020002380F2789AB12388D91CB942ADD8022195
:10A03000E954238801339BB201212380E95423880A
:10A040000B449BB22380EA5423880B44238072681C
:10A05000AAB12388D91CB94297D8022192F90020CD
:10A06000E954238801339BB20A212380E9542388D1
:10A0700001339BB22380EA54238801332380338940
:10A08000002B40F0A180338A5BB1CDE900472B461D
:10A090000722032106F11000FFF74DFF002840F0D2
:10A0A0009F80338B5BB1CDE900472B4615221421ED
:10A0B00006F11800FFF73FFF002840F09180326A58
:10A0C000002A40F09080D6F82480B8F1000F30D0FC
:10A0D000B8F804302188981C8A1C0244BA423FF622
:10A0E00054AFFE283FF651AF03336B54238801333E
:10A0F0009BB2FF222380EA54238801339BB2238042
:10A10000B8F80020EA54E918120A4A702088023090
:10A1100080B22080B8F804205AB1D8F8081000297D
:10A120006BD0284402F0BEFE2388B8F80420134404
:10A13000238096F82C30002B40F09880307800284F
:10A140004ED03388012B58D0228802F1020CBC4536
:10A150003FF61BAF012805D17378023313449F42A9
:10A16000FFF413AF023FBF1ABFB202A905EB0C0008
:10A17000ADF80870FFF785FE90BB3178BDF8083068
:10A18000022900F0B98072789A4202D39F4280F08F
:10A19000B180012940F0B280974293B2C0F0AE8006
:10A1A000ADF808300821BDF80830FE2B3FF6EDAEC3
:10A1B00022880133AB542288013292B22280A95402
:10A1C0002288134423800BE0CDE900472B4606226A
:10A1D000022106F10800FFF7AEFE00283FF453AF5E
:10A1E00005B0BDE8F08FB4F800C00CF10603BB4227
:10A1F0003FF6CBAE1188052901D80720F0E76FF4B0
:10A20000486E01EB0E039BB24FF27D3E7345F4D9CD
:10A210005388052BF1D96FF44860181880B2704547
:10A22000EBD94FF6FF70814201D09942E5D8052362
:10A2300005F80C30238801339BB212212380E954A6
:10A24000238801339BB223801188E954E818090A56
:10A250004170238802339BB223805288EA54E91864
:10A26000120A4A702388023323802CE7B36A002B3A
:10A27000C3D04FF000084FF00C0A4FF0160BB16A34
:10A280005FFA88F20AFB02F201EB0209B9F8043026
:10A29000981CFE283FF679AE208803332B54238880
:10A2A00001339BB2238005F803B0238801339BB2AE
:10A2B00023808A5AEA54E918120A4A702088023028
:10A2C00080B22080B9F804205AB1D9F808100029CA
:10A2D00093D0284402F0E6FD2388B9F80420134403
:10A2E000238096F82C2008F101085FFA88F39A423F
:10A2F000C5D823E7092156E79F42FBD2ADF8087085
:10A3000050E730B5C8B1F2B10024651C8D4206DAC1
:10A310001588A54212D805196D789D420ED1A1422B
:10A3200011D9005D48B1013880B230B10234A3B216
:10A3300010FA84F4A14206DB138030BD055D0135BF
:10A340002C44A4B2E1E70020F7E713B5134600223E
:10A35000ADF806200DF106020446FFF7D2FF10B15A
:10A36000BDF80630E01802B010BD72DF704773DF31
:10A37000704774DF704738B5012204460D46B0F8C7
:10A380001414D0F81004FFF7E0FF00B1057004F1D9
:10A390003C0204F5826104F15400BDE83840FFF747
:10A3A000E4BF80F830107047F8B504460F46002926
:10A3B00073D0002871D091F87A301BB191F89830A1
:10A3C000002B6CD1D7F8A030042B68D0D7F89C3084
:10A3D000042B64D04FF0000C84F802C007F178061B
:10A3E0000FCE251D0FC50FCE0FC596E8070085E8D7
:10A3F000070084F830C0D7F8A4306363D7F8A830DA
:10A40000A36304F582624FF6FF73C4F826C4A4F870
:10A410002434C4F82024C4F829C422780AB984F862
:10A42000543094F82430002B14BFEE231F2304F182
:10A430005501C4F81014A4F8143404F21442384638
:10A44000FFF795FD40BB94F82430002B14BFEE239A
:10A450001F2304F23121C4F81814A4F81C3404F2A8
:10A460001C4207F13C00FFF782FDA8B9A369A4F8DC
:10A4700048304FF480730125A4F85030636920649C
:10A48000014684F83C50636404F13C0204F154003A
:10A49000FFF76BFF00B92570F8BD0E20FCE7072021
:10A4A000FAE7F8B5077804460D46002F00F0018161
:10A4B0000023C0F82634C0F82934C388817000F224
:10A4C00026460BB1012903D0E37943B1022D06D111
:10A4D000636BABB1012284F82D240820984704F265
:10A4E000274304F22D4113F8012B12B99942FAD1F6
:10A4F00017466B1E032B4ED8DFE803F0050B0F1237
:10A5000084F82D34EBE7A3791BB194F8243003B918
:10A510005FB9E3790BB1002F3FD1237A002B3ED1F5
:10A52000637A002B0CBF00250425636BA570002BFC
:10A5300037D0033D012D34D8627992B394F82E249C
:10A540007ABB84F83024012284F82F24072098470E
:10A5500004F13C0518220021284602F0CCFCE26AF6
:10A56000531E0121022B28BF0A4684F8512094F87B
:10A57000242084F83C1032B1A36A581E022828BF58
:10A580000B4684F85230A378042B1CD8DFE803F084
:10A59000780D23365A000025C7E70225C5E70325B5
:10A5A000C3E7002384F82F34D2E7012384F8313045
:10A5B0000023C4E91063C4F82034022384F83C303B
:10A5C0008023A4F84830A378002B5DD1636B002B67
:10A5D0006BD1002068E00223002A84F8313014BFD8
:10A5E0000723032384F83C302369A4F84830002370
:10A5F000C4F82034E36826646364E4E76369636451
:10A60000A369A4F8483012B1062384F83C3063797A
:10A61000B3B194F82E349BB994F8303483B102234B
:10A6200084F8503004212046FFF7A5FE0028CAD147
:10A63000052384F8313004F58263C4F82034C2E77E
:10A640000323F6E7E3696364236AA4F8483012B190
:10A65000062384F83C30637983B194F82E346BB9C7
:10A6600094F8303453B1022384F85030042120464A
:10A67000FFF781FE0028A6D10623DAE70423D8E7F6
:10A68000002384F831309EE7D4F820142A4604F1E0
:10A690005400FFF76AFE38B994F8301094F854006B
:10A6A000FFF765FE002891D0F8BD94F83100984777
:10A6B0008FE70820F8E70388112B10B50C460AD065
:10A6C000262B1FD0102B05D1C37B012B02D18388F1
:10A6D000A1F8243410BD0022838881F82E24B1F81B
:10A6E00024249A42F6D10B79002BF3D10121204684
:10A6F000FFF7D7FE0028EDD0A36B002BEAD0BDE812
:10A7000010401847037A013B012BE3D889780523D1
:10A710000131B1FBF3F303EB8303C91AC9B2E6E7D6
:10A7200038B5044690F85400FFF723FE012384F85F
:10A730002E34002384F8303484F85030062120462B
:10A74000FFF719FE054638B9A1782046FFF7A9FEA4
:10A7500010B1A36B03B19847284638BD75DF704729
:10A7600076DF70477ADF70477BDF7047034B1A88CC
:10A7700082420CBF18460020704700BF043D0020F5
:10A78000024B9B6903B11847704700BFE83C0020AB
:10A7900073B585B22846FFF7E9FF044638B3174E74
:10A7A000027A337B9A420CD200F10A012846FFF765
:10A7B000D5FFF0B111281AD002B0BDE87040FFF704
:10A7C000DFBF00230372337C43B13B212846FFF7F0
:10A7D000C7FF30F0080301D0FFF7D2FF736933B130
:10A7E00000228DF80420ADF8065001A8984702B069
:10A7F00070BD237A01332372F9E700BFE83C0020E3
:10A8000037B50B46497A0F4A79B9D2E901141D7A56
:10A810000246002D18BF21465868FDF757F978B158
:10A8200003B0BDE83040FFF7ABBF00211972536998
:10A8300033B10122ADF806008DF8042001A8984735
:10A8400003B030BDE83C00204B8802889A4212D801
:10A8500042889A420FD380888B8840F2F311884255
:10A8600094BF021A421A9A4205D80844984234BF4B
:10A870000020012070470020704700000388122B41
:10A8800070B5014659D004D8102B1ED0112B44D0DE
:10A8900070BD502BFCD12F4BC288DB899A42F7D177
:10A8A000038A022BF4D186883046FFF75FFF054606
:10A8B0000028EDD001F1120000F07FF938BB686884
:10A8C000FDF754F90028E3D009E0C37B012BDFD169
:10A8D0004FF6FF70FFF74AFF054620B90420BDE898
:10A8E0007040FFF74DBF1C4A8E880680002303721C
:10A8F0001368C0F80A305368C0F80E3010310A30BF
:10A90000FFF7A2FF134B6872DB89002BC0D12946E9
:10A910003046BDE87040FFF773BF8088FFF726FF21
:10A9200004460028B4D04068FDF720F908B1FFF7CD
:10A9300027FF4FF6FF732380AAE786883046FFF78C
:10A9400015FF05460028A3D008310A30FFF77CFF29
:10A950006872DCE7E83C0020183D0020F8B50646A8
:10A9600048B305460FCD154F3C460FC495E8070088
:10A9700084E807003068124C3C60B0B1FFF7F2FE8B
:10A98000C0B9326813682360536863600D480E4A8B
:10A990004FF6FF7303800D4B40F8043F0021FDF795
:10A9A00067F8002818BF032004E02046FFF7DCFE0C
:10A9B0000028EBD0F8BD0E20FCE700BFE83C0020EB
:10A9C000183D0020043D002091A70200203D0020FA
:10A9D0000AB1FCF79BBCFCF7A2BC73B50191019CCA
:10A9E00006466CB100252C46294601A8FCF7A1FCBF
:10A9F00018B106EB440301349D800135142DF3D1C9
:10AA00003046346002B070BD2DE9F0470388848879
:10AA1000103B8CB005460A2B21D8DFE803F0064036
:10AA200020202020202020654700DFF8E880D8F88B
:10AA30000830DB430093D8F804106846FCF7A5FC07
:10AA4000009901A8FFF7C9FF0DF108090027019B34
:10AA50009F4207D3132C12D90420FCF799FA0CB0AB
:10AA6000BDE8F08739F802AB00260136514608EB05
:10AA70008600FCF754FC1E2EF7D10137E7E71F488C
:10AA80002146FCF743FC1E482146FCF73FFCEB7BCC
:10AA9000022BE4D11B482146FCF738FCDFE71748BE
:10AAA00021460CB0BDE8F047FCF739BC027A1648E5
:10AAB0003F2A4FEA1215214694BF00220122FFF7D8
:10AAC00087FF022D94BF0022012210482146FFF784
:10AAD0007FFF012D0E4894BF0022012221460CB0B9
:10AAE000BDE8F047FFF774BF037A002BB7D1427A75
:10AAF0000548C2F3C0022146F1E700BF483D0020EF
:10AB0000443D00204C3D0020583D0020543D002095
:10AB1000503D0020403D00201328014602D8024845
:10AB2000FCF707BC00207047443D002010B50446E8
:10AB3000FFF7F2FF002814BF2046142010BD70B5A7
:10AB40000546164608460AB90E2070BD002313605C
:10AB5000002DF9D02B68002BF6D0EB8813F00304FE
:10AB60000ED1FFF7E3FFC0B214280BD02B7983423C
:10AB70000AD9EA882B6800FB023030602046E4E7FF
:10AB80000720E2E70520E0E70420DEE7AADF7047C0
:10AB9000002301380B70042806D8DFE800F0030614
:10ABA000080A0C0011230B7070472123FBE73123A7
:10ABB000F9E71223F7E72223F5E7008800F0010008
:10ABC0007047F0B58B7891B00C46012B38BF01234C
:10ABD00000278DF80E3005460B88607CADF80C30F0
:10ABE0006946ADF800708DF80270FFF7D1FFA07CC8
:10ABF0000DF10101FFF7CCFF1646237BE27B217D9F
:10AC000043EAC203227C43EA02139DF80220B942C0
:10AC100022F0190203F0190314BF0221012113438A
:10AC200061F342031C22394609A88DF8023002F074
:10AC300062F9637B13F0300F14D00DF10901E07C51
:10AC4000ADF808708DF80A70FFF7A2FF11238DF898
:10AC500008309DF80A30012102AA61F342038DF801
:10AC60000A300E92637B8DF82430A37B8DF825305B
:10AC70000023CDE90633089303AB0493A388ADF812
:10AC80001C30A368CDF814D01BB1E288ADF81820B1
:10AC90000893A36973B301A90022ADF804208A7058
:10ACA0001A88ADF82C205A88ADF82E205A680D91DC
:10ACB000187B0A92FFF76CFFA3690DF10501587B21
:10ACC000FFF766FFA3699A7A197A41EAC201DA7A34
:10ACD0009B7B41EA02119DF80620002B01F019012F
:10ACE00022F0190214BF02230123114363F342012E
:10ACF0008DF80610E36903B10C93334604AA09A941
:10AD00002846FFF743FF11B0F0BD90DF7047A5DF85
:10AD10007047B5DF704700007FB50023ADF808101D
:10AD2000ADF80A106A4602A90646ADF80C30ADF837
:10AD30000E300093ADF80430FFF7E7FF054600B38F
:10AD4000114B124CE41AE408FCF776FE240444F09C
:10AD5000010403460E4932462046FBF742FEBDF889
:10AD60000020BDF8023052EA030103D00949204611
:10AD7000FBF737FEBDF804201AB107492046FBF760
:10AD800027FE284604B070BD70D60200B8D6020077
:10AD9000C4DE02000EDF02004DDF020080B14FF082
:10ADA000F7130360FB230371F723C3801723038189
:10ADB00041F6FB32002301614381828118467047CE
:10ADC0000E20704730B1A1F11703E02B04D80180A9
:10ADD000002070470E2070470720704713B50346C8
:10ADE00080880C46B8B91A88242A00F09C8014D8B0
:10ADF000112A74D0232A00F0A780102A3ED0A37A0B
:10AE00004BB1E1880020FFF782FF002840F0A280CC
:10AE10004FF48073638102B010BD3A2A68D0552A7E
:10AE2000EDD1DB88C988A072172B38BF17238B425E
:10AE300028BF0B462381FFF76CFF60B1FCF7FCFDD8
:10AE40004E4B4F4902464F481B1ADB081B0443F088
:10AE50000100FBF7BDFDE27A002AD0D12369002B67
:10AE6000CDD040F67721ADF802202289ADF8001050
:10AE7000ADF80420694620469847C0E7DB7B0A7995
:10AE80000A73012B13D0022B14D0E18823898B4243
:10AE900005D20020FFF73BFF70B90123E372217B4D
:10AEA000637B8B42ABD20020FFF736FFA7E70B880E
:10AEB000E380EAE74B88FBE7112802D10123A37264
:10AEC000EDE7FCF7B9FD2D4B2F4902462D481B1A23
:10AED000DB081B0443F00100FBF77AFDDFE7F723F3
:10AEE000CB8017230B8141F6FB3348818B8186E7AA
:10AEF0005B89CA88934228BF1346172B0A6938BF5B
:10AF000017230B8162B1C97A51B140F67721ADF8B0
:10AF10000010ADF80200ADF80430694620469047B5
:10AF2000002363816BE71A7A0B694A73002B3FF4A5
:10AF300066AF4DF67A218DF80500ADF80010ADF83A
:10AF400002008DF8042095E7197A237B994228BFE7
:10AF50001946A9E711283FF45EAFFCF76DFD074BDA
:10AF60000949024607481B1ADB081B0443F001008D
:10AF700002B0BDE81040FBF72BBD00BFB8D6020001
:10AF8000D4DF020070D60200A3DF0200B0DF7047FA
:10AF900066DF704710B5002104464088FFF7F8FFD0
:10AFA000034608B9237210BD112801D10123F9E726
:10AFB0006368BDE81040184760B159B10378DE2BD3
:10AFC0000AD00B684360DE2303704FF6FF734380A3
:10AFD000002070470E2070470820704728B1037882
:10AFE000DE2B04D14180002070470E2070470820DE
:10AFF0007047F0B5054685B00C46002942D00028C0
:10B0000040D00B78DE2B3DD182884B889A4204D108
:10B010000B7A13B10846FFF7BDFF2B88112B33D0F5
:10B02000512B0FD0012B2DD12B7A012B2AD1A9889E
:10B030006288914226D12046237205B0BDE8F040D7
:10B04000FFF7A8BFAE886388B3421BD1AF79022F48
:10B0500018D1AD7B2B1F022B14D80021102268467B
:10B0600001F049FF052D18BF4FF4C0736946304603
:10B0700018BFADF804308DF80070FFF787FF08B1F6
:10B080006368984705B0F0BD6388AA889A4204BFF8
:10B090004FF6FF736380F5E7A8DF7047ADDF7047B9
:10B0A000AEDF704762DF7047F0B505468BB00C46E7
:10B0B00000295FD000285DD00388502B35D0572B56
:10B0C0006CD0102B56D181886069002601AA0196A8
:10B0D000FFF735FD02232189A888ADF80A6002AA8E
:10B0E000CDF80CD0ADF80830FFF7D8FF002841D1DB
:10B0F000A369002B3ED00398FFF75FFD002839D0ED
:10B10000019E0EB1012333701822002104A801F022
:10B11000F2FE02238DF81030AB88ADF81830A36929
:10B120000594079604A8984724E08188606902AADC
:10B13000FFF705FD1822002104A801F0DCFEAB8812
:10B140002189ADF81830EB88029A0594994207924C
:10B1500017D12E8A022E14D162B105F11200FFF729
:10B160002CFD029B40B101221A708DF81060A3697A
:10B17000002BD7D10BB0F0BD187003238DF8103021
:10B18000F5E7A2899A42F5D1A369002BF2D005F127
:10B19000120208922A8AADF82420C3E781886069E8
:10B1A00002AAFFF7CCFC01460028E3D1029F3B78BE
:10B1B000002BDFD0A669002EDCD0182204A801F0F5
:10B1C0009AFE01238DF81030AB880594ADF8183045
:10B1D000079704A8B047CDE7F0B53A4B8FB002AD62
:10B1E00004460A4603F1100C2F46186859682E468B
:10B1F00003C6083363453546F7D1002C5FD0002ADB
:10B200005DD01368A36121463846FFF74BFF002845
:10B2100053D12246012512F8023B8DF8063001A9D0
:10B220002846ADF80450FFF737FF002845D1014606
:10B23000202206A801F05FFE22460223ADF8183056
:10B2400012F80C3B8DF81A30BDF824301E4E608881
:10B25000079623F44F6323F00F0343F440632B431B
:10B2600006A9ADF824308DF829508DF82A50FFF743
:10B27000A8FC10BB0146202206A801F03CFE224695
:10B280000323ADF8183012F8043B8DF81A30BDF8DE
:10B2900024306088079623F4875323F01F0343F478
:10B2A00080532B43ADF8243006A940F201138DF8EA
:10B2B0002950ADF82A30FFF784FC0FB0F0BD0E2006
:10B2C000FBE700BF18E00200F4000100F0B50F46F4
:10B2D00087B016461C46054610B3406901AA1946B8
:10B2E000FFF72DFCD0B94FF6FF739C421AD0019B9B
:10B2F000C3B11B78C3B13388F42B17D8AB88CDF812
:10B300000B008DF80F00ADF8083002A9012320468C
:10B31000CDE904678DF80A30FFF7C2FE07B0F0BD33
:10B320000E20FBE70520F9E70820F7E70720F5E7FF
:10B3300010DF704713B5044609496846FCF747FB20
:10B34000019808B902B010BDD0E90021204690470D
:10B3500018B16846FCF745FBF2E71120F2E700BFA1
:10B3600034E0020013B5044607496846FCF72FFB9A
:10B37000019B0BB902B010BD2046D3E900219047D4
:10B380006846FCF72EFBF3E74CE002000B4991F80E
:10B3900016335A09EC231341DB0706D5084B9A688C
:10B3A0003AB94FF480030B60704742F20200FBF79A
:10B3B000EFBD1A6842F480021A60704700E100E0B5
:10B3C00078310020F7B5194F3C7864BB184E012541
:10B3D00020463570FFF7AEFF112821D02046FFF739
:10B3E000C1FF144B8DF80340186801900DF1030064
:10B3F000FBF752FF104901A8FFF79AFF0446B0FA85
:10B4000080F0400938709DF80300FBF769FF3CB9F4
:10B410000A4B34701C70FFF7B9FF2846FFF7A2FFF4
:10B42000204603B0F0BD0824FAE700BFBD3D002070
:10B43000BC3D002030E00200AD6F0200BE3D0020A8
:10B44000014B1878704700BFBD3D002007B5084983
:10B450006846FCF7BCFA019B13B903B05DF804FB26
:10B46000D3E9002090476846FCF7BBFAF3E700BF3A
:10B4700040E0020060DF704769DF704761DF7047BE
:10B4800030B5134DADF5017D4FF4FA740DF10201A5
:10B4900003A8ADF80240FFF7F1FF70B9294601A8F3
:10B4A000FCF795FA029B002BF0D003A8D3E900210A
:10B4B000904701A8FCF795FAF4E7052805D00DF5AB
:10B4C000017DBDE83040FBF763BD0DF5017D30BD6A
:10B4D000D4E20200024B1B780BB1FFF7D1BF7047DB
:10B4E000BF3D002030B5054685B00C46002900F070
:10B4F000A4800023CDE90133514A039301230A605C
:10B500008DF804008DF8063001A906232020ADF83F
:10B510000830FFF7B1FF60B1FCF78EFA494B4A499A
:10B5200002464A481B1ADB081B0443F00100FBF7E4
:10B530004FFA0023CDE9013303932268012301A9C7
:10B5400040208DF80530FFF797FF60B1FCF774FAE3
:10B550003C4B3F4902463D481B1ADB081B0443F0A5
:10B560000100FBF735FA0023CDE90133039322688C
:10B570008DF80450F72301A92320ADF80630FFF71A
:10B580007BFF60B1FCF758FA2E4B324902462F4838
:10B590001B1ADB081B0443F00100FBF719FA002318
:10B5A00001202268039301A9CDE901338DF804003D
:10B5B000FFF762FF60B1FCF73FFA224B26490246D3
:10B5C00022481B1ADB081B0443F00100FBF700FABA
:10B5D0000023CDE9023322684FF4B06301A9A12012
:10B5E0000193FFF749FF60B1FCF726FA154B1B49A1
:10B5F000024616481B1ADB081B0443F00100FBF748
:10B60000E7F900252268039501A9A020CDE901559D
:10B61000FFF732FF034668B1FCF70EFA094B1049F9
:10B6200002460A481B1ADB081B0443F00100FBF723
:10B63000CFF92B46184605B030BD0E23FAE700BF00
:10B64000D82A0020C8D6020058E0020070D60200B6
:10B650009EE00200EAE0020031E102007DE102002A
:10B66000CEE1020073B505460668FFF703FF2B68BD
:10B67000B34204461DD91A481A4B1B491B1ADB0852
:10B680001B0443F002000190FBF79EF92B68174959
:10B6900001983246FBF7A5F94FF080532A68D3F89A
:10B6A0000C31134901989B0203F100539A1AFBF7DE
:10B6B0008FF92CB90F4B01221A70204602B070BDD1
:10B6C0002046FCF7B9F9074B0B49024604481B1A00
:10B6D000DB081B0443F00100FBF77AF9EDE700BF3C
:10B6E00070D60200C8D6020021E2020050E2020039
:10B6F00081E20200BF3D0020ABE202004BDF704759
:10B700001FB50E4C01A8FFF7F9FF70B9214602A83A
:10B71000FCF75DF9039B002BF4D00198D3E90021DD
:10B72000904702A8FCF75DF9F4E7052804D004B0BF
:10B73000BDE81040FBF72CBC04B010BDECE20200E9
:10B7400008B5064B1B6803B19847FFF77FFE4FF023
:10B75000FF31012000F0D0FEF7E700BFC43D00201C
:10B7600007B500230193094B01A9186800F0F8FE02
:10B77000019B43B1064B4FF080525A6040BFBFF36C
:10B780004F8FBFF36F8F03B05DF804FBC03D002007
:10B7900000ED00E007B5114A1060114A0192022243
:10B7A0000B4600920F4910484FF4807200F016FBD0
:10B7B00001280FD00D4B0E480E49C01AC0080004D6
:10B7C00040F00100FBF700F9042003B05DF804EB42
:10B7D000FBF7DEBB03B05DF804FB00BFC43D0020F7
:10B7E000C03D0020F8E2020041B7020070D602001E
:10B7F000D0D60200FCE2020000F108034FF0FF3255
:10B80000C0E9022343600361002303607047002303
:10B810000361704743684B609A688A609A68516018
:10B8200099600368086101330360704730B50C68A4
:10B83000631C0AD103695A684A6091608B60596041
:10B84000036808610133036030BD00F1080213464C
:10B8500052681568A542FAD9EDE7D0E901120369EB
:10B860008A6051605968814208BF5A6000220261B3
:10B870001A68013A1A601868704710B5044601F05A
:10B8800027F9A46B01F02EF9B4FA84F0400910BD39
:10B89000F8B51546026C866B044652B9076847BB7B
:10B8A000406800F0EFFD676005460136A663284654
:10B8B000F8BD65B9806801F0F5FAA368226C1344FD
:10B8C0006268A3609342F0D32368A360EDE7C06889
:10B8D00001F0E8FA226CE36851429B1A2268E360A7
:10B8E00093423EBF63685B18E360022D01D116B13D
:10B8F000013E0025D9E73546D7E7034610B41A6C58
:10B9000008466AB1DC68596814448C4228BF19683B
:10B91000DC6028BFD960D9685DF8044B01F0C2BA79
:10B920005DF8044B704770B5044601F0D1F894F807
:10B93000455004F124066DB2002D14DCFF2384F879
:10B94000453001F0CFF801F0C3F894F8445004F109
:10B9500010066DB2002D12DCFF2384F84430BDE8E0
:10B96000704001F0BFB8636A002BE7D0304600F0AA
:10B97000E9FC08B100F056FD013D6DB2DCE723693A
:10B98000002BE9D0304600F0DDFC08B100F04AFDA4
:10B99000013D6DB2DEE7000038B504460D4601F00A
:10B9A00097F8D4E90F312268A2604B43D0185B1A94
:10B9B00013446060E3600020FF23A06384F84430F8
:10B9C00084F845309DB923696BB104F1100000F093
:10B9D000B9FC40B10A4B4FF080525A6040BFBFF3F0
:10B9E0004F8FBFF36F8F01F07DF8012038BD04F158
:10B9F0001000FFF701FF04F12400FFF7FDFEF2E75E
:10BA000000ED00E070B50646484348300D4600F0B2
:10BA1000A7FF044648B155B100F14803C4E90F65DA
:10BA2000236001212046FFF7B7FF204670BD034683
:10BA3000F4E700002DE9FF474FF00008DFF8F8A019
:10BA4000019204460F461E46C14601F041F8A26B22
:10BA5000E36B9A4201D3022E1AD132463946204670
:10BA6000FFF716FF636A1BB104F1240000F06AFCC3
:10BA700040B1314B4FF080525A6040BFBFF34F8FFF
:10BA8000BFF36F8F01F02EF8012004B0BDE8F087FE
:10BA9000019D1DB901F026F80020F6E7B8F1000F6E
:10BAA00002D102A800F08AFC01F01CF800F09CFA18
:10BAB00001F00EF894F84430FF2B08BF84F844904E
:10BAC00094F84530FF2B08BF84F8459001F00AF840
:10BAD00001A902A800F07EFC38BB00F0F9FFA26BC0
