:020000022000DC
:1060000000000120756302005D6302005F6302000F
:106010006163020063630200656302000000000028
:1060200000000000000000000000000009C20200A3
:10603000696302000000000029C202006D630200D3
:10604000DD7F02006F630200B18102006F63020016
:106050006F6302006F630200658002006F630200DD
:106060006F6302006F6302006F6302006F630200E0
:106070006F6302006F6302006F6302006F630200D0
:106080006F6302002DC302006F6302006F630200A2
:106090006F6302006F630200BDAF02006F63020016
:1060A0006F6302006F6302006F6302006F630200A0
:1060B0006F6302006F630200000000000000000038
:1060C0006F6302006F6302006F6302006F63020080
:1060D0006F6302006F6302006F6302000000000044
:1060E00000000000000000000000000000000000B0
:1060F00000000000000000000000000000000000A0
:10610000000000000000000000000000000000008F
:10611000000000000000000000000000000000007F
:10612000000000000000000000000000000000006F
:10613000000000000000000000000000000000005F
:10614000000000000000000000000000000000004F
:10615000000000000000000000000000000000003F
:10616000000000000000000000000000000000002F
:10617000000000000000000000000000000000001F
:10618000000000000000000000000000000000000F
:1061900000000000000000000000000000000000FF
:1061A00000000000000000000000000000000000EF
:1061B00000000000000000000000000000000000DF
:1061C00000000000000000000000000000000000CF
:1061D00000000000000000000000000000000000BF
:1061E00000000000000000000000000000000000AF
:1061F000000000000000000000000000000000009F
:10620000354936480A1A02D0072291438D4634494F
:1062100034480A1A06D00722914381F309880222E2
:1062200082F3148830483149314A00F044F831484B
:106230003149324A00F03FF831483249324A00F0E1
:106240003AF832483249334A00F035F83248334997
:10625000334A00F030F833483349344A00F02BF821
:1062600033483449344A00F026F83448344900228F
:1062700000F02CF833483449002200F027F8334866
:106280003349091A082902DB002202604160314AC1
:1062900090471F481F49884205D00268043003B464
:1062A000904703BCF7E700208646EC46002000211B
:1062B000294A9047FEE7884207D0521A05D0037852
:1062C00001300B700131013AF9D17047884202D098
:1062D00002700130FAE770470000012000E0002062
:1062E00000000120000001209CDE0200D82A0020CE
:1062F000782B0020D0630200D0630200FCCE0200A5
:106300009CDE0200D82A0020D82A002000D00200FB
:1063100000D0020000D0020000D0020000D0020035
:1063200000D0020000D0020000D002009CDE02007B
:106330003CDF0200782B0020782B0020782B0020F7
:10634000904E0020904E0020904E0020904E002055
:10635000906E00209D63020059920200FEE7FEE766
:10636000FEE7FEE7FEE7FEE7FEE7FEE7FEE7FEE705
:1063700000F002B8FFF7FCBF0F484FF00701884359
:1063800085460E4880470E48016841F4700101605F
:10639000BFF34F8FBFF36F8FFFF732BF09480A4932
:1063A0000A4A884207D0521A05D0037801300B7090
:1063B0000131013AF9D17047000001203D79020016
:1063C00088ED00E000D00200D82A0020D82A002062
:1063D0007047000007B5044B0093044A402300F0C7
:1063E00032F803B05DF804FBF1630200792B002062
:1063F0002DE9F84388461446B2B10F4B0F4E0325E2
:10640000002743F00109224608EB0701002003F0B2
:1064100001F90744241A48B933782BB14FF47A4074
:10642000C847013D02D13570BDE8F88301233370C0
:10643000002CE8D1F8E700BF00D00200782B002044
:10644000704703F045B9F0B595B01D4616460846AD
:106450000C4601F005F91A9B0D93CDE9086500255E
:106460002B46082205A920460A958DF82C500C953C
:1064700001F012F9079B0293069B03939DF81430D9
:106480008DF8115003F00302012A1DD1BDF814202C
:10649000059DC3F3C203C2F383168DF81030B2001A
:1064A00008230EA9204601F0F7F8C5F3952508AB9F
:1064B0000093324602AB0EA9284600F033FB20467B
:1064C00001F0D2F815B0F0BD022AF8D1BDF816508F
:1064D000C3F3C203C5F389158DF810300827082DC2
:1064E0002E4628BF08263B4632460EA9204601F01C
:1064F000D3F8AD1B08AB02AA31460EA8374400F012
:1065000075FB002DEBD1DAE708B5FFF79AFF0448D9
:10651000042100F071FA034B01225A7108BD00BF3B
:10652000F0CF0200D82A0020037813F0040216D01E
:1065300003F00303012B03D0022B09D00120704785
:106540000A6800880232C0F3831002440A60F5E74B
:106550000B684288023303EB92130B60EEE71046A0
:10656000704700002DE9F04FDFF81CA187B00F46FF
:1065700000230446861C0DF1070015468DF80730F0
:1065800000F018FDDAF804203A60DAF8083003F574
:1065900080739B1A0AF21C470AF583690AF21448B1
:1065A000B3421AD30020002D69D004F00F039B01E1
:1065B00043F0050363F30F00DAF80430DAB2033274
:1065C00033444AF822009DF80700CAF8043000F06E
:1065D00015FD012007B0BDE8F08F0121384600F01D
:1065E0006EFD484600F083FD404600F080FDDAF87D
:1065F00008000290C0B203300AEB800002A9FFF746
:1066000093FF029B30BBDAB20AEB8202D16803919E
:106610009A1C0133DBB20AEB83030292D3F80CB06D
:1066200001F00303012B22D0022B15D083464046F4
:1066300000F060FD10B1029BCAF808305946384698
:1066400000F03DFDDAF80830DAF8042003F5807335
:106650009B1AA5E7D8B2CEE7BDF80E30C3F3891375
:1066600003334FEA1B4B02EB93030293DFE7BDF8C2
:106670000C30C3F383134FEA1B4B1344F5E7A40517
:1066800044F0060098E700BF8C2C0020064B07481A
:1066900010B500221A7000F09CFF044610B904489F
:1066A00001F01AF8204610BD8C2C00205CCF0200AF
:1066B0003CD0020030B50A4C71B10A4A0A49121B9B
:1066C000D20800239A4201D1002030BD31F8235076
:1066D000854202D00133F5E7034654F83300F4E76E
:1066E00070CF0200F0CF0200D82A0020094B0139F8
:1066F00003EBC000032909D8DFE801F00A02040611
:106700000420704700797047407970470020704737
:106710000220704770CF020070470000034BD3E99E
:106720000130C31A58425841704700BF8C2C0020DA
:106730002DE9F04186B0FFF7F1FF0546002840F053
:10674000ED80774CC4F81804BFF34F8FA368029311
:10675000DBB2033304EB830002A9FFF7E5FE029BE3
:1067600018B1D4F81824002A5AD0DAB2991C01338F
:1067700004EB8202DBB204EB8303D268DB68049390
:1067800002F00303022B0392029154D1BDF80E30A4
:106790006448C3F38917502F3E4628BF502606F1A0
:1067A000080166F38F13C1F30901ADF80E3000F054
:1067B00028FF0546002800F09C8000F051FF0023D0
:1067C000082203A9284600F05DFF0299CB43DBB203
:1067D0000133C9B20331B6EB830F4FEA830204EBF6
:1067E000810125D95FFA82F80823A6EB080628461E
:1067F00000F048FFF6B208F108034B4903F0FC0330
:106800003246284600F03EFF029B033703EB970712
:106810000297D4F81834002B43D1D4F8106453E015
:1068200062689A4294D8A260284606B0BDE8F0811A
:1068300008233246E5E7012B5BD1BDF80C3039481F
:10684000C3F38311062928BF062161F3891302319E
:1068500001F00F018900ADF80C3000F0D2FE0546C2
:10686000002846D000F0FCFE0023082203A9284699
:1068700000F008FF0026BDF80C20C2F38312B3001D
:10688000964203F10803C4D202994A1CC9B20331EB
:10689000029204EB81010422284600F0F3FE013647
:1068A000E9E7284600F0E0FEFFF738FF80F001003E
:1068B000C5B2B9E7F3685B7923B1336829461B6831
:1068C00030469847F3681E68002EF3D1284600F042
:1068D000CBFE0DF107008DF8076000F06BFBD4F8DC
:1068E00018340BB9029BA3609DF8070000F086FBEB
:1068F000DAE7D4F8104454B90C4B0D480D49C01ACE
:10690000C008000440F0020000F05EF8CCE7236805
:1069100020469B689847E3681C68ECE7002583E7FE
:106920008C2C00205CCF0200982C002070CF02003D
:1069300098CF020024D002002DE9F34704460E460A
:10694000924601A9012218469946FFF70BFE1C4FFB
:1069500010B3019D4FF00008AA1CC84508EB0201C6
:1069600025D11848002100F07BFB80F310000004C3
:1069700040EA1440E4006B1C04F03804DBB2EDB2D2
:1069800044F0010407EB8303033544EA881444EA26
:106990008624D86047F825403B781BB1FFF7C8FE36
:1069A0000028FBD1FFF7B8FE02B0BDE8F087C9B2FE
:1069B00007EB81015AF82830CB6008F10108CCE7D9
:1069C0008C2C0020A830002000231A46FFF7B4BF0B
:1069D00007B50123019201AAFFF7AEFF03B05DF8EE
:1069E00004FB07B5CDE9002302236A46FFF7A4FFA5
:1069F00003B05DF804FB000030B50F4CD4F8102450
:106A000003460020114631B9D96808714AB9C4F863
:106A100010340A6030BDC9680D79854206D0096816
:106A2000F1E7D26814680C601360F3E701300A28BC
:106A3000E8D14FF0FF30EDE78C2C002038B5084B43
:106A40000125D3F810441D7004B938BDE3685D71A9
:106A5000236820465B689847E3681C68F4E700BF3A
:106A60008C2C002030B5C38885B004460D4633B168
:106A7000144A00921449154A284600F09EFB217AD8
:106A800005291DD0637A4BB1A088FFF72FFE104B6C
:106A9000104953F82020284600F08FFB227A0E4B35
:106AA000A08853F8222003920021FFF703FE039AE7
:106AB0000A490346284605B0BDE8304000F07DBBDA
:106AC00005B030BD68D0020050D0020048D00200AE
:106AD000D4D002006DD00200F8D0020070D00200C5
:106AE00007B503460846197A052911D05B7A2BB100
:106AF000094A0A49019000F060FB01980849019099
:106B000000F05BFB019803B05DF804EB00F04ABBBA
:106B1000002AF8D0F2E700BF68D002006DD0020072
:106B2000D0D602002DE9F04385B01F460C9D00230E
:106B300095F80C902B7306460C469046294638462D
:106B4000FFF790FFB8F1060F09D8DFE808F004124C
:106B5000181F283340003146284600F02EFB002243
:106B600029463846FFF7BCFF85F80C9005B0BDE814
:106B7000F08322683146284600F01FFBEFE7D4E996
:106B800000233146284600F018FBE8E7A36800938D
:106B90003146D4E90023284600F00FFBDFE7E36825
:106BA0000193A36800933146D4E90023284600F0FE
:106BB00004FBD4E723690293E3680193A36800937D
:106BC0003146D4E90023284600F0F7FAC7E76369A5
:106BD000039323690293E3680193A368009331460A
:106BE000D4E90023284600F0E8FAB8E708292DE99F
:106BF000F74F80460E4617461C463DD800251B7BA6
:106C00002573214610460193FFF72CFFDFF88CA077
:106C1000DFF88CB0AE4232D918F80520594620462C
:106C200000F0CBFA0135082DF4D11B49DFF874A030
:106C3000DFF874B0204600F0C0FA4FF000094E456E
:106C400024D918F809507E2D1ED8284605F07EFD5F
:106C5000002814BF2A462E225946204600F0ADFADD
:106C600009F10109B9F1080FE9D10122214638469D
:106C7000FFF736FF019B237303B0BDE8F08F514649
:106C8000204600F09AFACDE72E22E5E7514620464D
:106C900000F093FAE4E700BF84D0020080D0020045
:106CA0007AD0020082D0020086D002001FB50021F7
:106CB000039001AA44F20100CDE9011100F004F8AB
:106CC00005B05DF804FB000038B572B6FFF7B6FEFC
:106CD000FFF72EFD0028FBD1104B114C114D12492E
:106CE000E41AE408240444F00100FFF76DFED5F82F
:106CF000F030DB0700D500BE0C4944F00200FFF77E
:106D000063FEBFF34F8FEA68094B02F4E06213435E
:106D1000EB60BFF34F8F00BFFDE700BF70CF0200F5
:106D200098CF020000ED00E017D1020023D102004D
:106D30000400FA0549B152B1531E1A4007D18260CE
:106D400001608380C260104670470E2070470920A2
:106D5000704710B58468C2688388121B934208D3B9
:106D6000C26813400268D154C3680133C360002075
:106D700010BD0420FCE78268C3689A420AD082688A
:106D8000838813400268D35C0B708368013383608F
:106D900000207047052070470648074A03780749D6
:106DA000D35C012213B1043001F062BE0C3001F05B
:106DB00025BC00BFE02A0020A83100206C31002053
:106DC0000648074A03780749D35C012213B104300F
:106DD00001F000BE0C3001F0C1BB00BFE02A002072
:106DE000A83100206D31002037B50578012D0DD078
:106DF000022D30D075B91F491F48FFF7BCFF00288E
:106E000034D103B0BDE83040FFF7DABF037A1BB9D5
:106E1000FFF7C2FF03B030BD4368184C1978204615
:106E2000FFF797FF80B18DF800500190144B684632
:106E30001B689847A168E368A2885B1A9A42E7D268
:106E4000104B01221A70E5E7A268E3689A42F1D07C
:106E50008DF80000EAE7C3688DF800500193FFF752
:106E60009BFF074B68461B689847D3E703238DF8C1
:106E70000030F6E76D3100205C3100204831002001
:106E80004431002058310020F0B51F46234B89B013
:106E900004461A600D4600293DD08A8820480968BA
:106EA000FFF748FF002834D1AA89A9681D48FFF7D9
:106EB00041FF00282DD11C4E0FCE6D460FC596E820
:106EC0000F0085E80F0063690693237C174A184872
:106ED0008DF81C70003B18BF01238DF81430637CC3
:106EE000002B14BF0E2300238DF81530E3680293A6
:106EF000A36803932368019369466368009300F0D5
:106F0000CDFF30B90B4B18702368013301D0FFF768
:106F100043FF09B0F0BD0720FBE700BF443100206C
:106F2000483100205C31002030D10200E96D0200C0
:106F3000E02A00205831002070B5084D014608486D
:106F40002E78FFF718FF044636B100232B70FFF7A9
:106F500023FF08B1FFF7AAFE204670BD583100207C
:106F60004831002010B501460E48FFF7F2FE0446F6
:106F7000A8B90D480D4A0378D35C63B1043001F021
:106F80001DFD60B90A490748FFF7F5FE38B9BDE8AD
:106F90001040FFF715BF0C3001F0D4FAF1E720469E
:106FA00010BD00BF5C310020E02A0020A831002085
:106FB0006D31002070B5EFF3108672B60C4A9468FC
:106FC00001239CB993600B4B0B4DD3F880102940E3
:106FD0001160C3F88050D3F8841051604FF0FF3235
:106FE000C3F88420047006B962B670BD0370FAE776
:106FF0007031002000E100E0FC06FFBD084B9A68FC
:1070000010B55AB150B9EFF3108172B6054A1C6839
:1070100014605C685460986001B962B610BD00BF2E
:107020007031002000E100E001F01F024B09012156
:10703000914000EB830000F01EB801F01F03012215
:107040009A404B0900EB8300D14300F02CB84B0968
:1070500001F01F0150F82300C84000F00100704704
:1070600010B5034653E8000F0A4643E8002494F0A5
:10707000000FF7D110BD10B5034653E8002F42EAC8
:10708000010043E8000494F0000FF6D110BD10B5E4
:10709000034653E8000F00EA010243E8002494F09D
:1070A000000FF6D110BD10B5034653E8002F02EAD9
:1070B000010043E8000494F0000FF6D110BD10B5B4
:1070C000034653E8002F02EB010043E8000494F06C
:1070D000000FF6D110BD10B5034653E8002FA2EB08
:1070E000010043E8000494F0000FF6D110BD012127
:1070F000FFF7C1BF0021FFF7CABF10B590B1D0E9BB
:10710000012301689B1ADBB20A60013BDBB2FF2B53
:10711000026802D10020107110BD11684C1C14606F
:107120000B70F2E70E20F7E737B5054600240DF1A6
:1071300007008DF80740FFF73DFF2A686B6811686C
:1071400099420ED9481E106011F8013CEC68298A5A
:1071500001FB0344AB6811791B1ADBB2994238BFBB
:1071600013719DF80700FFF749FF204603B030BDBB
:1071700037B5054600230DF107000C468DF80730A2
:10718000FFF718FF2A681368591C1160E968641A30
:10719000298AB4FBF1F41C709DF80700FFF72EFF5D
:1071A00003B030BD826810B504462AB14369016856
:1071B000006998470023A36010BD0EB403B503997E
:1071C00021B104AB01AA019300F076F802B05DF89A
:1071D00004EB03B070470A2938B504460D4602D1C6
:1071E0000D21FFF7F8FFA3682268591CA160D55450
:1071F000D4E901329A4204D32046BDE83840FFF773
:10720000D1BF38BD2DE9F84F9846DDE90A43154650
:1072100082460F460A464FF00109AA420FD2C145E5
:1072200038BFC14613F0010B01D16CB9002401260F
:10723000B8F1010F1BD908F1FF386E43F8E709F1E7
:107240000109B2FBF5F2E8E79B070ED5B8F1000F94
:107250000CBF30262026A145E9D2013C31465046DC
:10726000FFF7B9FF002CF6D1E0E72026F3E7B7FBE4
:10727000F6F39D42E1D9DFF83C80B7FBF6F35046C8
:1072800018F8031006FB1377FFF7A5FF3346AB4250
:10729000B6FBF5F6F1D2BBF1000F02D00CB1A1455F
:1072A00001D3BDE8F88F20215046013CFFF793FF42
:1072B000F4E700BF50D102002DE9F74F054617460D
:1072C0008846002900F03E8118F8011B49B92B7B44
:1072D000002B00F03781284603B0BDE8F04FFFF7E0
:1072E00061BF252940F0B780002698F800302D2B8B
:1072F000424608F1010823D0302B24D02B2B25D077
:1073000000242A2B02F1010123D13B681A1D1B68BE
:107310003A601C440A4613782E2B26D101324FF0D6
:10732000000A104610F8011BA1F1300CBCF1090F46
:107330001DD80A2303FB0A13A3F1300A0246F0E723
:1073400046F00106D1E746F00206CEE746F0040615
:10735000CBE711F8013CA3F130000928DBD80A2261
:1073600002FB0434303C0A46CBE74FF0000A12F827
:10737000011B01F0FB0068289046F8D0782909D855
:107380006F290CD8632962D022D8252963D05829C7
:1073900000F0888098F80030002B95D197E770397D
:1073A0000829F7D801A353F821F000BF1F75020088
:1073B0009573020095730200B57402009573020084
:1073C000937402009573020095730200A574020085
:1073D000642901D06929DDD13A68D2F80090111DE5
:1073E00089EAE9723960A2EBE9724FF0010B092AD0
:1073F00035DCD34538BFD3462CB1B9F1000F01DBE2
:10740000720700D5013CB30702D5BAF1000F03D0D3
:10741000F00701D44CBB0024B9F1000F2DDAC9F1FB
:1074200000092D212846FFF7D6FE06F00302022AA6
:1074300004D1BAF1000F01D11CBB0024CDE90046F4
:1074400053460A2249462846FFF7DCFEA2E73B687E
:107450001A1D19783A602846FFF7BDFE9AE70A23FD
:107460000BF1010BB2FBF3F2C1E7A345D4D220210B
:107470002846013CFFF7AFFECCE77107D5D52B219D
:10748000D0E7A345DAD230212846013CFFF7A3FE1E
:10749000D2E73968CDE900460A1D3A6053460A2210
:1074A0000968D0E739680A1D3A60CDE900465346BD
:1074B0001022F5E73B681A1D3A6016F00106D3F872
:1074C000009024D1B9F1000F03D0484605F0E8F947
:1074D0000646B4421DD809F1FF3919F8011F0029E9
:1074E0003FF458AF2846FFF776FEF6E72846013608
:1074F000FFF771FE19F806100029F7D1A642BFF474
:1075000049AF20212846013CFFF765FEF6E700263B
:10751000F0E720212846013CFFF75DFED9E73B68F4
:107520001A1D3A60302128461C68FFF754FE782166
:107530002846FFF750FE00220823CDE900322146FD
:10754000102280E703B0BDE8F08F00BF2DE9F84FAF
:10755000B0F806A04579D2F800B09DF828900AFB53
:1075600005F5043D88460BEB0301A94203F1040431
:1075700088BFA5EB030BB4FBFAF607460AFB1644DB
:10758000C2F800B04EB9AAEB04055D4528BF5D46C0
:10759000BBF1000F04D1BDE8F88F3F68013EF1E771
:1075A000043408EB06003C442A46B9F1000F0DD024
:1075B0002146ABEB050B05F0F5F8DA452E443F68A4
:1075C00055464FF0000428BF5D46E1E701462046DE
:1075D000EFE7FFF792BDF8B546790146721E054602
:1075E000002393422D6803D30024A64202D8F8BD9D
:1075F0000133F6E70F682846FFF7BAFD0134394634
:10760000F3E72DE9F843068ACD1C0746FFF78CFD0A
:10761000043E35440446B5FBF6F5F0B14FF48073F3
:10762000EDB28380C680013D076081464FF00008BF
:10763000A84512D23846FFF777FD064648B1637970
:107640000133637108F10108C9F800000760814641
:10765000EEE72046FFF7BFFF34462046BDE8F8833B
:1076600001210430FFF72BBD10B501210446043081
:10767000FFF731FDC0B220B92046BDE81040FFF74A
:10768000AABF10BD1FB503920022009203AAFFF704
:107690005DFF05B05DF804FB1FB503920122009267
:1076A00003AAFFF753FF05B05DF804FB064B10B5C6
:1076B00000241C70054B1C60BFF35F8F0449054814
:1076C00000F013F8204610BD8431002088310020DE
:1076D0006CD102007C310020836800225A60C3E92B
:1076E00004229A60DA601A6070470B684A68436047
:1076F000934208BF0023016008BF4360704743689E
:1077000043B10268916852680B449342436004BFDE
:10771000002343607047000010B50D49A1F5947235
:10772000914201D800200FE08C1AE30F03EBE40331
:107730005B1002EBC30452F83330834205D802D207
:1077400004F10802ECE7606810BD2146E8E700BFDD
:1077500078D6020008B5FFF7DFFF024B002808BF0C
:10776000184608BD3BD5020010B504F005FD037BAB
:1077700043B1437B83F001030373BDE8104083688A
:107780000068184710BD00207047000073B50468FA
:107790000E46154602B3237B03BB6168F1B9102284
:1077A000204605F028F8002E0CBF01230023637348
:1077B0000B4BA56018BF0122009308BF00220948A7
:1077C00023464FF47A7104F093FB0028606014BFE5
:1077D00000200E2002B070BD0720FBE70820F9E76B
:1077E0006977020082D00200F0B5456887B0044690
:1077F000002D45D0067B2EBB0260EFF305831BB343
:107800000A46009605AB09212846059604F08AFB36
:10781000012825D104F026F80096024605AB062182
:10782000284604F07FFB01281AD1059B43B1154B74
:107830004FF080525A6040BFBFF34F8FBFF36F8F3E
:107840000123237300200CE002270A46009704213D
:107850002846039304F066FB0128039B064602D0EA
:10786000042007B0F0BD039303F0F6FF039B0097DD
:1078700002463146284604F055FB0128E0D0EFE7E8
:107880000820EEE700ED00E01FB50446406830B385
:10789000EFF30583D3B10022009203AB08210392DA
:1078A00004F040FB012801D004200DE0039B43B10C
:1078B0000C4B4FF080525A6040BFBFF34F8FBFF365
:1078C0006F8F00232373184604B010BD022200926C
:1078D00003211A4604F026FB0128F2D0E4E7082031
:1078E000F2E700BF00ED00E04FF08053D3F8300125
:1078F000421C04BF4FF0704393F8E00F831F5842BF
:10790000584170474FF0704393F8E02F062A09D191
:10791000D3F8E83FC3F30313033B042B02D8024A16
:10792000D05C70470020704787D60200024AD2F828
:107930000034002BFBD0704700E0014010B5FFF78A
:10794000D3FF40B14FF08053944AD3F82433C3F3AC
:107950000423C2F84035FFF7D5FF10B1904B914A90
:107960005A67FFF7C1FF48B14FF080534FF0804294
:10797000D3F84432C3F34233C2F83C35FFF7C2FFB9
:1079800030B1894AD2F8FC3023F08073C2F8FC3061
:10799000FFF7AAFF40B14FF080430022C3F80C214B
:1079A000C3F81021C3F83825FFF7ACFF20B14FF022
:1079B00080430322C3F8A025FFF7A4FF60B17B4BEF
:1079C0000522C3F810260122C3F888260022C3F836
:1079D00018263F22C3F814264FF08053D3F83021E5
:1079E000511C09BF4FF07043D3F8343193F8E02FA6
:1079F000D3F8E83F08BFC3F30313062A4DD1033B76
:107A0000042B03D86A4AD35C002B46D04FF0805237
:107A1000684BD2F80414C3F82015D2F80814C3F840
:107A20002415D2F80C14C3F82815D2F81014C3F892
:107A30002C15D2F81414C3F83015D2F81814C3F862
:107A40003415D2F81C14C3F84015D2F82014C3F82A
:107A50004415D2F82414C3F84815D2F82814C3F8F2
:107A60004C15D2F82C14C3F85015D2F83014C3F8C2
:107A70005415D2F83414C3F86015D2F83814C3F88A
:107A80006415D2F83C14C3F86815D2F84014C3F852
:107A90006C15D2F84424C3F87025FFF725FF48B1D0
:107AA0004FF080534FF08042D3F8583203F04F0329
:107AB000C2F8E43EFFF718FF48B14FF08043D3F817
:107AC0000024D20744BF6FF00102C3F800244FF036
:107AD0008053D3F83021062A0ED1D3F83431033B3A
:107AE000042B02D8344AD35C33B1344AD2F83C3741
:107AF00043F48063C2F83C372B4AD2F8883043F411
:107B00007003C2F88830BFF34F8FBFF36F8F4FF011
:107B10008053D3F83021062A0FD1D3F83431033BF8
:107B2000042B02D8264AD35C3BB14FF01023D3F884
:107B300008224FF08043C3F858254FF01023D3F8A4
:107B40000022002A03DBD3F80432002B22DA1D497D
:107B500001234FF01020C1F804351524FFF7E6FE8D
:107B6000C0F80042FFF7E2FEC0F80442FFF7DEFE75
:107B70000023C1F80435FFF7D9FEBFF34F8F0A4940
:107B8000114BCA6802F4E0621343CB60BFF34F8F1E
:107B900000BFFDE70D4B0E4A1A6010BD00300140DA
:107BA00000C007400DF0ADBA00ED00E0005000400D
:107BB00078D6020000C000407DD6020000100040D0
:107BC00082D6020000E001400400FA05F42A0020F9
:107BD0000090D003054A4FF0A043105CD3F8043561
:107BE00023FA00F0C04300F00100704790D6020075
:107BF000044B1A5C012393404FF0A042C2F80C35AD
:107C0000704700BF90D60200044B1A5C01239340DA
:107C10004FF0A042C2F80835704700BF90D602006E
:107C200008B50020FFF7F0FF0120FFF7EDFF02206D
:107C3000FFF7EAFFBDE808400320FFF7E5BF08B5FE
:107C40000020FFF7D5FF0120FFF7D2FF0220FFF74A
:107C5000CFFFBDE808400320FFF7CABF074A4FF037
:107C6000A041105CD1F804350122824022EA0300D1
:107C70001340C1F80805C1F80C35704790D60200D2
:107C8000014B185C704700BF8CD6020038B5074C1A
:107C9000051E04F1080318BF1C4623682BB11A689F
:107CA00022605B6828469847F7E738BD943100208A
:107CB00020B9054B01225A70FFF7E8BF012802D115
:107CC000014A9070F8E770478C31002020B9034BCF
:107CD00001225A70FFF7DABF704700BF8C310020D5
:107CE00038B50E4C2378B3B90D486360A3602361A7
:107CF000E36000F01BF9054602F0D0FF08B900F080
:107D000021F901232370074BD3F800340BB1012371
:107D1000A370284638BD8525F5E700BF8C310020CB
:107D2000B17C02000000014037B5184CA37805462D
:107D300003F0FF029BB110B1436801209847002374
:107D40000DF107008DF80730FFF734F9E3689DF86F
:107D500007000133E360FFF751F903B030BD0DF1C7
:107D600007008DF80720FFF725F925B12269134692
:107D70003BB92A602561E368002BE7D100F0F4F8F5
:107D8000E4E79D42F7D01B68F2E700BF8C3100208A
:107D900037B50D4C00230DF107008DF80730FFF7C4
:107DA00009F9E368013BE360E36833B9074BD3F8B3
:107DB000005415B900F000F9A5709DF80700FFF711
:107DC0001DF903B030BD00BF8C3100200000014020
:107DD000012813B50CD0032820D038B9134B012249
:107DE000C3F88020BFF34F8FBFF36F8F02B010BD79
:107DF0000F4C00230DF107008DF80730FFF7DAF87C
:107E000023780BB9FFF76CFFE3689DF80700013397
:107E1000E3600123A370FFF7F1F8E7E700F092F8C1
:107E200002B0BDE81040FFF7B3BF00BF00E100E0C3
:107E30008C3100201FB503788DF800304368019322
:107E400083688DF80830C368054A0393054B68467C
:107E500053F8213052F82110984705B05DF804FB23
:107E6000A0310020A43100201FB503788DF8003028
:107E70004368019383688DF80830C368054A03930B
:107E8000054B684653F8213052F82110984705B049
:107E90005DF804FBA0310020A4310020F0B5194B9F
:107EA00090F800C091F81DE043F82C20164B1646C0
:107EB0000A6943F82C20154B03F80CE00C460746E2
:107EC0000FCC89B06D460FC594E80F0085E80F0010
:107ED000CDF810C0BEF1000F09D0002E0C4A694643
:107EE00008BF3246381D00F0A7FC09B0F0BD002ED7
:107EF000084A694608BF324607F10C0000F06EFAE6
:107F0000F3E700BFA4310020A0310020A8310020F9
:107F1000357E0200697E020000F18040002382B0BD
:107F2000036003680193019B02B07047044A137910
:107F300023B9012110609180184670478520704751
:107F4000AC310020074B1A68D20704D4C02283F852
:107F5000002301221A604FF080430122C3F8182544
:107F6000704700BF00E100E038B54FF48270FFF7C2
:107F7000D3FF4FF080430222C3F804230C4AD2F807
:107F8000FC0040F08073C2F8FC300A4B1C6844F0DF
:107F9000010119605D685968491BB1F50A5FFAD3A0
:107FA0001C604FF08043C2F8FC0001229A6038BD8B
:107FB00000ED00E0001000E04FF0804208B5022321
:107FC000C2F808334FF48270FFF7A6FF0123D36095
:107FD000D2F81834DB03FBD408BD00004FF0804119
:107FE00010B5D1F8003163B14FF48070FFF794FF02
:107FF0000D4B58790122C1F8082310B95A711B683A
:1080000098474FF08042D2F8043163B14FF4827048
:10801000FFF782FF0223C2F80833034BBDE810408C
:108020001B680120184710BDAC31002000F18040D2
:1080300000F5C040002382B0036003680193019BF8
:1080400002B07047800000F1A040D0F8002722F471
:108050004032C0F80027D0F8003743EA0141C0F8A9
:10806000001770472DE9F74F00244E4D01944FF44F
:108070008072012102F1804303F5C04390B21B6876
:10808000012B06D1D5F804330B4202D0FFF7CEFF07
:108090000C430432B2F5907F4FEA4101EAD1414BE3
:1080A000D3F87C31012B0CD14FF4BE70FFF7BEFF2B
:1080B0004FF0A04344F00044D3F820250192C3F8C8
:1080C0002025E3B2D3B1384F00250126344210D029
:1080D000AB0003F1804303F5C043D3F81005D3F898
:1080E000101557F8253023B1C1F30141C0F3042026
:1080F00098470135082D4FEA4606E7D1002C48DAAB
:10810000294D4FF0A048294E4FF00009012716F9DC
:10811000013B5A1C31D0C3F3C20208326A44DCB2BC
:1081200012F8042C03F03F0A03F0070307FA03F3E5
:108130001A4222D00AF5E073504658F82330C3F3B0
:10814000014BBBF1020F0CBF03210221FFF77AFFA5
:1081500007FA0AF3C8F8203505EB0A0393F9303023
:1081600055F823304BB1A109032904D0BBF1020F0C
:1081700012D1012901D15046984709F10109B9F1FD
:10818000040FC4D1D8F820350193C8F82035002B4E
:10819000B9D103B0BDE8F08FBBF1030FEDD10229D7
:1081A000E8E700BF00600040B43100200432002046
:1081B000014B1B68184700BF103200200E4B98423D
:1081C00037B50C4602D0002003B030BD00230DF1BE
:1081D00007008DF80730FEF7EDFE084B1D7915B945
:1081E00001221C601A719DF80700FEF707FF002DA1
:1081F000E9D01120E8E700BF002000401032002045
:108200000023435082B043580193019B02B0704752
:108210000A4610B54FF48E71FFF7F2FF136A9168AA
:10822000C95C136A01331362C0F81C1510BD024605
:1082300008B500684FF49271FFF7E2FF10684FF441
:108240008471FFF7DDFF136801221A6008BD8B6996
:108250000A4610B54FF4847123B9FFF7D1FFD0F867
:10826000183510BDFFF7CCFF536AD168D0F8180558
:10827000C854536A01335362F3E700001FB501236A
:108280008DF80030044BCDE90110D3E900126846A7
:10829000904705B05DF804FB1832002030B54D4D15
:1082A000D5F804339A0585B051D5D5F82431002B83
:1082B0004DD04FF492712846FFF7A2FF4FF401739F
:1082C000C5F80833444B93F829200AB901226A60A3
:1082D000404902228DF80020D1F88024C1F8802482
:1082E00003929A690292DA6801920022C3E9062297
:1082F0006846D3E9001290473648D0F81C315BB18C
:10830000354A5169136A99424DD992F82830002BA9
:1083100049D11146FFF77CFF2E48D0F84431002B9D
:1083200056D04FF4A271FFF76BFF2B4B93F8292027
:108330000AB1012202609A69002A49D0586AD968B4
:1083400000229A6105B0BDE83040FFF797BFD5F82D
:1083500004335B07D0D5D5F80831002BCCD01E4CA8
:108360001C482146FFF773FF636AA2699A42C3D192
:10837000E369E1684BB1A3612369E3600023606AAC
:10838000E3616362FFF77AFFB6E794F829300BB92F
:1083900001236B600F4B4FF40172C3F808230023D5
:1083A000606AA361EEE70B484FF48E71FFF728FF78
:1083B0005369002BB0D051690291002391688DF868
:1083C0000030019153616846D2E900139847A3E752
:1083D00005B030BD00200040183200202DE9F843E0
:1083E000534D90F804802C2303FB0853064693F862
:1083F0002A300C469146002B40F096804D4900688B
:10840000FFF7DCFE0746002840F0908022683068C5
:10841000511C0BD04FF0A04101239340C1F8083507
:1084200002F5E0734FF0030C41F823C061684B1C68
:108430001FBF01F5E0734FF0A04C4FF0000E4CF859
:1084400023E0A369C0F8243594F814C0637DBCF11F
:10845000010F4CEA0303C0F86C35C0F81415C0F8DE
:108460000C251DD1A268531C1FBF02F5E0734FF00D
:10847000A0414FF0000C41F823C0E368591C0BD019
:108480004FF0A04C01219940CCF8081503F5E0719C
:108490004FF0030E4CF821E0C0F80835C0F8102565
:1084A0002C2202FB08F2AB18C3F804902369AB50EE
:1084B000B9F1000F20D04FF48E71247FFFF7A0FE9A
:1084C0004FF4A2713068FFF79BFE32681A4BC2F876
:1084D0000433130B42F307326101002AC9B21EDBD9
:1084E0001648841884F800130121520903F01F0371
:1084F00001FA03F340F8223033680422C3F8002560
:108500002C2303FB08530022C3E9062283F8292009
:108510005A61012283F82A203846BDE8F883084AC8
:1085200003F00F03D154E7E70827F5E71127F3E736
:10853000183200209D8202008000020000E100E06D
:1085400014ED00E00279044B2C2101FB0233586941
:10855000003818BF01207047183200202DE9F84F6D
:10856000064690F8048089469246FFF7EBFF0446E2
:1085700000283CD1204F2C2508FB057B4FF48E7141
:10858000CBF814A0CBF80890CBF820008BF828008B
:108590003068FFF735FE3068012383605946FFF7E6
:1085A00037FEDBF804305D461BBB3068DBF8144057
:1085B0002B6A9C4211D83368D3F81C21002AFBD0C7
:1085C0000122DA6000202C2303FB087700237B6163
:1085D000BDE8F88F95F828303BB9D0F81C31002B56
:1085E000F8D05946FFF714FEE2E70F20EBE7112021
:1085F000EEE72046ECE700BF183200202DE9F047F7
:108600003A4D07792C2303FB075306465C6824B1D7
:1086100003684FF40170C3F808032C2303FB0753CE
:10862000986950B1D869002841D024B133684FF41B
:108630000172C3F80423112436E09A61D9605862AC
:10864000D8612C2303FB075393F829301BB910B9C9
:108650003046FFF7ECFD4FF02C0808FB075A306856
:10866000DAF80430002B37D14FF4A271D046FFF76F
:10867000C7FD3068D0F82491D0F80831D0F84441D3
:10868000CBB914B9B9F1000FF3D02C2303FB075574
:108690000023AB61B9F1000F24D12CBB95F8291050
:1086A00033680122B1B11A602046BDE8F087196134
:1086B000DA610120C5E7B9F1000FE6D1002CE4D161
:1086C0004146FFF7C4FDDAF82430DAF818209A4260
:1086D000CFD8DAE75A60E7E74FF40173C0F8043304
:1086E0000024E1E70324DFE70F24DDE71832002050
:1086F0000023435082B043580193019B02B070475E
:108700001FB501238DF80030044BCDE90110D3E9EA
:1087100000126846904705B05DF804FB4432002023
:108720007FB5434AD2F82461002E60D010464FF442
:108730009271FFF7DDFF02238DF80030D2F880340C
:10874000C2F880340393D2F83C350293394BDA688F
:1087500001920022C3E906226846D3E9001290473D
:108760003348D0F8443173B14FF4A271FFF7C0FF22
:10877000304B9A693AB10022C3E90622D968D0F891
:108780003C05FFF7BDFF2A48D0F82031ABB14FF4CC
:108790009071FFF7ADFF0123C360264B5A6962B1A8
:1087A000D0F84C150291002299688DF800200191B3
:1087B0005A616846D3E9001290471D48D0F85831F5
:1087C0009BB14FF4AC71FFF793FF1A4B5A6962B13A
:1087D000D0F84C150291002299688DF80020019183
:1087E0005A616846D3E90012904704B070BDD2F8D0
:1087F0001031002BB4D04FF488711046FFF778FF8A
:108800000C4BD2F83C0599698842A9D1DC69D9683A
:1088100064B1D2F8005225F02005C2F800521A695E
:108820009C61DA60DE61FFF76BFF99E79C61FAE714
:1088300000200040443200202DE9F8435A4E90F8C1
:108840000480242303FB0863044693F820300D467C
:108850009146002B40F0A38054490068FFF7AEFC1E
:108860000746002840F09D802A682068511C0BD0E4
:108870004FF0A04101239340C1F8083502F5E073A1
:108880004FF0030C41F823C069684B1C1FBF01F572
:10889000E0734FF0A04C4FF0000E4CF823E0AB69B2
:1088A000C0F8243595F814C06B7DBCF1010F4CEA7B
:1088B0000303C0F86C35C0F80C25C0F814151DD1A1
:1088C000AA68531C1FBF02F5E0734FF0A0414FF0A0
:1088D000000C41F823C0EB68591C0BD04FF0A04CA2
:1088E00001219940CCF8081503F5E0714FF0030E13
:1088F0004CF821E0C0F80835C0F81025242202FB0E
:1089000008F2B318C3F804902B69B350B9F1000F03
:108910002FD04FF488712A7FFFF7EAFE20684FF4CA
:108920009071FFF7E5FE20684FF49271FFF7E0FECB
:1089300020684FF4A271FFF7DBFE4FF4AC712068A2
:10894000FFF7D6FE23681A49C3F80413190B43F343
:1089500007335201002BD2B21CDB1648C51885F82C
:10896000002301225B0901F01F0102FA01F140F826
:10897000231023680822C3F80025242303FB08667C
:108980000023C6E906337361012386F82030384698
:10899000BDE8F883084B01F00F015A54E9E70827B6
:1089A000F5E71127F3E700BF4432002021870200DA
:1089B0001003420000E100E014ED00E00279044BF6
:1089C000242101FB02335869003818BF0120704789
:1089D0004432002001F06043B3F1005F2DE9F0471D
:1089E0000646884692463BD190F80490FFF7E6FF92
:1089F0000446002836D11D4F3068242505FB097533
:108A00004FF49071C5F814A0C5F80880FFF770FE08
:108A10004FF4AC713068FFF76BFE33686A69A96880
:108A2000C3F84415C3F8482501229A606A68DAB988
:108A3000D3F82021D3F858011AB90028F8D00F2014
:108A400007E00028FBD10122DA60D3F85821002A80
:108A5000FBD0242303FB097700237B61BDE8F0876B
:108A60001020FBE71120F9E72046F7E74432002009
:108A7000F8B501F06043B3F1005F04460F465ED1E4
:108A80000379304D242101FB0351496821B100686D
:108A90004FF40476C0F80863242000FB03539E695A
:108AA00056B1D869002839D021B123684FF4047237
:108AB000C3F80423112030E09A61DF60DE61206892
:108AC0004FF48871FFF714FE20684FF4A271FFF78E
:108AD0000FFE2368C3F83475C3F8382516BB01228E
:108AE0001A602479242202FB045252680ABBD3F88C
:108AF0001011D3F84421D3F82401114302D10028E6
:108B0000F5D00A46242303FB04550023984218BFDE
:108B100003209A42AB6118BF0F20F8BD1F61DA61D4
:108B20000126CCE7D3F8002242F02002C3F800224D
:108B3000D7E74FF40472C3F804230020EDE71020B8
:108B4000EBE700BF4432002008B5094B1B7853B156
:108B50000020FFF759F80120FFF756F8BDE808405C
:108B60000320FFF751B8BDE80840FFF759B800BF30
:108B700068320020F8B57A4C237805461BB10023F3
:108B80002370FFF7E1FF172D00F28780DFE805F083
:108B90000C1717425364757F878C878C9499999929
:108BA0009999C3C8D0D8E3E3FFF7CEFF6D48FEF72D
:108BB0006BFE6D4B002204461A702046F8BD002063
:108BC000FFF708F8F0B10020FFF71EF8022D0CBFE8
:108BD0004FF4E1644FF47A64634B1D7000254FF449
:108BE00000464FF47A7029464FF4FA620023E4FB02
:108BF000060103F07FFC2A460146BDE8F8405948CB
:108C0000FEF7F2BDFEF7F4FF022D0CBFC8244FF4AF
:108C1000C874E1E70020FEF7DDFF40B10020FEF759
:108C2000F3FF4FF44874504B03221A70D6E7FEF757
:108C3000DFFFC824F7E70020FEF7CCFF38B10020A3
:108C4000FEF7E2FF4FF47A64474B0422EDE7FEF7AC
:108C5000CFFF4FF4C874F7E70020FEF7BBFF48B121
:108C60000020FEF7D1FF404B05221A7040F6CD419F
:108C70000022C2E7FEF7BCFFF5E70020FEF7EEFF9B
:108C8000394B06221A70002240F26661B5E70020D7
:108C9000FEF7AEFF344B07221A7000248DE7012047
:108CA0002070FEF7DBFFEEE701202070FEF7D6FF15
:108CB00000224FF40051A0E7FEF7C1FF2A4B0C221F
:108CC000EAE72A482A4EFEF7DFFDD5F111050446F2
:108CD0001CD0D8B9012D13D0C820454321464FF4EC
:108CE00000474FF47A704FF4FA620023C5FB070186
:108CF00003F000FC224601461C48FEF775FD0446C1
:108D00000220FEF775FF0123337056E70220FEF7BD
:108D10007BFF0023F8E7FFF717FF134B1222BBE797
:108D2000FFF712FF0020FEF763FF0F4B1322B3E79C
:108D3000FFF70AFF0120FEF75BFF0B4B1422ABE7A6
:108D4000FFF702FF0020FEF753FF0120FEF750FF60
:108D5000054B1522A0E7FEF772FF034B1D709CE741
:108D60007C320020182B00207D320020F82A0020C1
:108D70006832002010B5002914BF03240024FEF738
:108D80007FFF800000F1A040D0F8002722F440329D
:108D9000C0F80027D0F8003743EA0443C0F8003792
:108DA000002010BD044B1B6813F0010301D0FFF736
:108DB000E1BE1846704700BF78320020032811D862
:108DC000012A0AD101290FD100F10E02D2B20D4BB6
:108DD00000EB40001A54002070470129F7D0022907
:108DE00004D049B1072070470022F8E7054B00EB9B
:108DF000400018444270EEE7024B00EB400018447C
:108E00008270E8E769320020032802D80121FFF7C9
:108E1000B1BF0620704708B5012202210020FFF7EC
:108E2000CDFF08B1072810D1072202210120FFF74A
:108E3000C5FF08B1072808D100210A220846FFF71C
:108E4000BDFF10B1072808BF002008BD0388102B04
:108E500010B502D0112B1ED010BD1A4C2168B1B92B
:108E600001220846FFF7AAFF08B1072824D10722EC
:108E700002210120FFF7A2FF08B107281CD104221C
:108E800002210020FFF79AFF08B1072814D12368B8
:108E900001332360E0E70B4A1368013B1360002BAA
:108EA000DAD1FFF7B8FF0028D6D0074B1B68002B9C
:108EB000D2D0BDE810401847034B1B68002BE6D00A
:108EC0009847E4E7843200208032002008B5002073
:108ED000FFF79AFF08B1062806D10120FFF794FF9B
:108EE00010B1062808BF002008BD76DF70477ADF82
:108EF00070477CDF70477FDF70478FDF7047B1DFDF
:108F0000704733DF70470000034B01221A70034A99
:108F100013680133136070477C330020E838002069
:108F2000FFF7F2BFFDF7C2BE08B50020FFF73AFF1A
:108F300008B1FDF7BBFEFFF7C9FF08B1FDF7B6FEAC
:108F4000FFF7DFFF18B1BDE80840FDF7AFBE08BD71
:108F500008B50548032100F0F0FE18B1BDE808404F
:108F6000FDF7A4BE08BD00BF8033002008B5064C45
:108F7000064E074D2378002BFCD000233168237068
:108F8000284600F0A7FBF5E77C330020E8380020F6
:108F9000B1D6020008B5064C064E074D2378002BCB
:108FA000FCD0002331682370284600F093FBF5E7DE
:108FB0007C330020E8380020C2D602000388212B31
:108FC00013B504463FD007D8112B2DD0132B48D012
:108FD000102B0CD002B010BD522B4AD0562B01D012
:108FE0003B2BF7D1A0881321FFF77FFF15E0254B1E
:108FF00025482649C01AC008000440F00300FDF7C8
:10900000E3FC0720FFF7CEFE08B1FDF74FFE204B33
:10901000A1882048198001F00FFC0028DAD002B0A6
:10902000BDE81040FDF742BE164B17481A49C01A5A
:10903000C008000440F00300FDF7C6FC144B4FF6D7
:10904000FF721A80C6E7002380888DF8043001A9DA
:109050008DF80530FFF751FF0028BBD0FDF726FE45
:10906000B8E70B4800231A4685210088FFF743FF25
:10907000D3E7074800231A4619460088FFF73FFF49
:10908000CBE700BF70CF020098CF0200D3D602001A
:109090003E2B0020CC370020DDD6020008B5037837
:1090A0004BB9054B3B211888FFF71FFF18B1BDE8EE
:1090B0000840FDF7FBBD08BD3E2B002008B548B1B8
:1090C00003280BD10220FFF76DFE38B1BDE8084040
:1090D000FDF7ECBDBDE80840FFF726BF08BD000066
:1090E000F7B50378012B33D0022B31D073BB1B4C67
:1090F0001B4D20782844FDF71FFF23780133DBB296
:109100001D44237015F8012C0A2A05D00D2A03D01E
:10911000144A12889A4219D8012B15D9124D104EB3
:10912000124F2378ADF806300DF106022B88314638
:10913000384601F0F9FC082806D01328F1D005289C
:1091400002D008B1FDF7B2FD0023237003B0F0BDDB
:10915000406803B0BDE8F040FDF7A8BD7D330020B6
:10916000883200203C2B00203E2B0020402B00208A
:109170002DE9F0410578064645BB154C154BDFF847
:109180005880E41AE408240444F00104B28A9542A9
:109190000AD33369134413F8013C0D2B16D10A206E
:1091A000FDF7E0FE1128F9E73369585DFDF7DAFEB7
:1091B000074648B11128F7D0024641462046FDF740
:1091C00007FC3846FDF772FD0135DFE7BDE8F081A9
:1091D00098CF020070CF0200EAD602000D4B4A88F9
:1091E0001B889A4214D10A8840F677239A420FD1FD
:1091F0008B88094A09480A49033B9BB21380094AF4
:10920000801AC00800041A4640F00300FDF7E9BBCD
:10921000704700BF3E2B00203C2B002098CF02005F
:1092200015D7020070CF0200FDF740BD08B5084910
:10923000084801F0E1F908B1FDF738FD0548F721CC
:1092400001F0EEF918B1BDE80840FDF72FBD08BDEB
:10925000DD910200B437002000B5904D0FCDB3B0C2
:1092600007AC0FC495E803008D4B8E4A03934FF46F
:10927000807384E80300CDE9052304938A4A072319
:1092800003A907A8FDF700FE08B1FDF70FFD4FF495
:1092900080410020FDF7FAF908B1FDF707FDFDF761
:1092A00033F9FEF770FA08B1FDF700FD7F4B00932C
:1092B0000122002364217E487E4C7F4D02F018FE7F
:1092C0007E4B2060012200937D480023642102F040
:1092D0000FFE2368286003B110B90420FDF7E6FCF7
:1092E000FEF7E4F908B1FDF7E1FC01F099FC08B1E3
:1092F000FDF7DCFC002307A90120079301F020FD06
:1093000008B1FDF7D3FC07A801F0DAFD08B1FDF7BD
:10931000CDFC11236B498DF80C300B2203A8FFF70D
:10932000E8FD08B1FDF7C2FC0023ADF820301023A2
:10933000ADF81C303C23ADF81E3007A84FF4C873BD
:10934000ADF82230FFF7D3FD08B1FDF7AFFCFFF712
:109350006DFF5D4B5D48079307A901F05BFA08B10B
:10936000FDF7A4FC5A4B5B48039303A901F062FB91
:1093700008B1FDF79BFCAC22002107A803F03BFAE3
:1093800002238DF81C3005238DF81F300123402166
:10939000ADF868308DF8983044F25063CDE9291368
:1093A0004D4A4E4B4E481B9207A9309300F048FCA3
:1093B00008B1FDF77BFC4A48012100F03EFC142275
:1093C000002107A803F017FA4FF4F0234FF4A0325E
:1093D000CDE9082303238DF82830424B0C9307A8CE
:1093E000414B0D9300F0E8FE08B1FDF75FFC3F48EC
:1093F00000F08DF93E4B3F483F49C01AC0080004B9
:1094000040F00300FDF7E0FA3C4B01930123009389
:109410003B493C4800234FF4807202F00DF90128CB
:1094200002D00420FDF742FC374B01930123009347
:109430003649374800234FF4807202F0FDF80128C6
:1094400002D00420FDF732FC246802F005FA022362
:109450000246009301210023204602F063FD01280B
:1094600002D00420FDF722FC2C6802F0F5F902235B
:109470000246009301210023204602F053FD0128FB
:1094800002D00420FDF712FC224807A901F0B0FD2C
:1094900002F0AAF90F20FDF709FCFBE790D70200C4
:1094A000E0370020EC380020E1900200098F020034
:1094B00031D70200E0380020E4380020218F02007C
:1094C00037D702003DD70200258F0200CC3700209D
:1094D00071910200402B0020382B0020BD9002002B
:1094E000803300209D9002002992020049D702009B
:1094F00070CF020098CF02005AD70200D837002060
:1095000083D70200958F0200DC37002089D7020044
:109510006D8F0200518F02000369C26893429CBFA5
:1095200080681B18013B981A70472DE9F843D0E971
:1095300002940546A9EB04084068904520440F4674
:10954000144404D903F02EF9EC60BDE8F8834246D8
:10955000A4EB090403F026F96868224607EB08012A
:10956000F0E72DE9F843C5680646894617464FF0EF
:1095700000083469B3687068A54228BFE418013C4C
:10958000621B5C1BBC4228BF3C46944228BF144669
:1095900049462844224603F005F9B3682544AB4206
:1095A00008BF00253F1BA044A144F560E1D140461F
:1095B000BDE8F88310B5114C114AA2610223C4E939
:1095C0000433104BE361A2644FF400730E4A0F4959
:1095D0002362E26400231022E01DA3626362E3625F
:1095E000A3656365E365226503F038F90849204601
:1095F00003F034F92023A37110BD00BFEC39002023
:10960000A8D70200743A0020643A0020B1D70200C3
:10961000B5D7020070B5164B182400FB04451D4455
:1096200004FB00331646DC6A012C0ED0022C18D045
:10963000E4B92846FFF770FF864204D83246284630
:10964000FFF773FF3446204670BD2846FFF764FFDE
:109650008642344628BF044622462846FFF765FF67
:10966000F1E72846BDE87040FFF77BBF0024EAE73A
:10967000EC39002073B50E4B1B7804460D46164698
:109680000BB9FFF797FF00230DF107008DF80730A6
:10969000FDF790FC324629462046FFF7BBFF044603
:1096A0009DF80700FDF7AAFC204602B070BD00BF80
:1096B000EC39002013B504460846019103F0F0F898
:1096C00001990246204602B0BDE81040FFF7D2BF24
:1096D000FFF770BF0FB410B5A2B024AB802153F8D0
:1096E000042B019302A803F04DF8802804460ADDFC
:1096F000802202A90020FFF7BDFF204622B0BDE86E
:10970000104004B070470028F7DD0246F1E701463B
:109710000020FFF7CFBF6DDF704779DF70477DDF37
:10972000704764DF70472DE9F04F85B000250E9C2F
:10973000BDF83CB0B4F800A00191074690461E4623
:10974000A9463A884A450DDC45B12388013BA3EB85
:109750000A039BB2FF2B3AD806F80A30002005B066
:10976000BDE8F08F7A6852F82900039000220DF1CD
:109770000B0103A8FFF7D5FF0028F0D19DF80B20BF
:10978000424521D12288002D14BF0020022002EB87
:109790000801014459451ADC3DB9013292B2019BDE
:1097A0002280B35422880132228022880DF10B01DD
:1097B000324403A8FFF7B5FF0028D0D121889DF8D7
:1097C0000B200A442280012509F10109B9E70C2088
:1097D000C5E72DE9F341089FBDF824801546CDE982
:1097E0000078022204461E46FFF79DFF50B933461B
:1097F000102229462046CDE9087802B0BDE8F041A4
:10980000FFF791BF02B0BDE8F0812DE9F04F0023D2
:109810001788138090F82D3085B006460D46144603
:109820005BB3082F01D80C2028E102A8FFF773FFD3
:10983000002840F023812388DDF809100822EA542B
:10984000238801339BB21B222380EA5423880133EF
:109850009BB2EA182380E950BDF80D30938023882D
:109860009DF8082006339BB212F0FE0218BF0122B9
:109870002380EA54238801332380B378FBB1238803
:109880000433BB42CFD802A8FFF747FF002840F0BF
:10989000F58023880322EA54238801339BB21922DE
:1098A0002380EA542388BDF8082001339BB2E918CD
:1098B0002380EA54120A4A70238802332380F27804
:1098C0009AB12388D91CB942ADD80221E954238822
:1098D00001339BB201212380E95423880B449BB2BE
:1098E0002380EA5423880B4423807268AAB123881A
:1098F000D91CB94297D8022192F90020E954238853
:1099000001339BB20A212380E954238801339BB29F
:109910002380EA542388013323803389002B40F0CD
:10992000A180338A5BB1CDE900472B460722032192
:1099300006F11000FFF74DFF002840F09F80338BA9
:109940005BB1CDE900472B461522142106F1180022
:10995000FFF73FFF002840F09180326A002A40F074
:109960009080D6F82480B8F1000F30D0B8F80430D9
:109970002188981C8A1C0244BA423FF654AFFE2844
:109980003FF651AF03336B54238801339BB2FF2260
:109990002380EA54238801339BB22380B8F8002047
:1099A000EA54E918120A4A702088023080B22080F6
:1099B000B8F804205AB1D8F8081000296BD0284410
:1099C00002F0F0FE2388B8F804201344238096F8B0
:1099D0002C30002B40F09880307800284ED033880F
:1099E000012B58D0228802F1020CBC453FF61BAF78
:1099F000012805D17378023313449F42FFF413AF5B
:109A0000023FBF1ABFB202A905EB0C00ADF8087007
:109A1000FFF785FE90BB3178BDF80830022900F0D1
:109A2000B98072789A4202D39F4280F0B1800129B6
:109A300040F0B280974293B2C0F0AE80ADF80830EB
:109A40000821BDF80830FE2B3FF6EDAE2288013329
:109A5000AB542288013292B22280A9542288134446
:109A600023800BE0CDE900472B460622022106F1B8
:109A70000800FFF7AEFE00283FF453AF05B0BDE885
:109A8000F08FB4F800C00CF10603BB423FF6CBAE3A
:109A90001188052901D80720F0E76FF4486E01EB23
:109AA0000E039BB24FF27D3E7345F4D95388052BCC
:109AB000F1D96FF44860181880B27045EBD94FF6B1
:109AC000FF70814201D09942E5D8052305F80C309A
:109AD000238801339BB212212380E9542388013368
:109AE0009BB223801188E954E818090A4170238841
:109AF00002339BB223805288EA54E918120A4A7052
:109B00002388023323802CE7B36A002BC3D04FF0A5
:109B100000084FF00C0A4FF0160BB16A5FFA88F29A
:109B20000AFB02F201EB0209B9F80430981CFE2886
:109B30003FF679AE208803332B54238801339BB240
:109B4000238005F803B0238801339BB223808A5A0F
:109B5000EA54E918120A4A702088023080B2208044
:109B6000B9F804205AB1D9F80810002993D0284434
:109B700002F018FE2388B9F804201344238096F8D5
:109B80002C2008F101085FFA88F39A42C5D823E730
:109B9000092156E79F42FBD2ADF8087050E730B577
:109BA000C8B1F2B10024651C8D4206DA1588A542C1
:109BB00012D805196D789D420ED1A14211D9005DD0
:109BC00048B1013880B230B10234A3B210FA84F443
:109BD000A14206DB138030BD055D01352C44A4B2E3
:109BE000E1E70020F7E713B513460022ADF80620A1
:109BF0000DF106020446FFF7D2FF10B1BDF80630A2
:109C0000E01802B010BD72DF704773DF704738B5DF
:109C1000012204460D46B0F81414D0F81004FFF7E2
:109C2000E2FF00B1057004F13C0204F5826104F129
:109C30005400BDE83840FFF7E6BF80F830107047A9
:109C4000F8B504460F46002973D0002871D091F86A
:109C50007A301BB191F89830002B6CD1D7F8A03036
:109C6000042B68D0D7F89C30042B64D04FF0000C44
:109C700084F802C007F178060FCE251D0FC50FCE60
:109C80000FC596E8070085E8070084F830C0D7F8CC
:109C9000A4306363D7F8A830A36304F582624FF65B
:109CA000FF73C4F826C4A4F82434C4F82024C4F8EC
:109CB00029C422780AB984F8543094F82430002B4F
:109CC00014BFEE231F2304F15501C4F81014A4F8A7
:109CD000143404F214423846FFF797FD40BB94F861
:109CE0002430002B14BFEE231F2304F23121C4F8CB
:109CF0001814A4F81C3404F21C4207F13C00FFF7CE
:109D000084FDA8B9A369A4F848304FF480730125F5
:109D1000A4F8503063692064014684F83C506364C1
:109D200004F13C0204F15400FFF76DFF00B9257007
:109D3000F8BD0E20FCE70720FAE7F8B507780446DF
:109D40000D46002F00F001810023C0F82634C0F832
:109D50002934C388817000F226460BB1012903D053
:109D6000E37943B1022D06D1636BABB1012284F8D4
:109D70002D240820984704F2274304F22D4113F8BC
:109D8000012B12B99942FAD117466B1E032B4ED8FC
:109D9000DFE803F0050B0F1284F82D34EBE7A3790D
:109DA0001BB194F8243003B95FB9E3790BB1002FEC
:109DB0003FD1237A002B3ED1637A002B0CBF0025C4
:109DC0000425636BA570002B37D0033D012D34D8DB
:109DD000627992B394F82E247ABB84F8302401225D
:109DE00084F82F240720984704F13C05182200210D
:109DF000284602F000FDE26A531E0121022B28BF13
:109E00000A4684F8512094F8242084F83C1032B19A
:109E1000A36A581E022828BF0B4684F85230A37844
:109E2000042B1CD8DFE803F0780D23365A000025F8
:109E3000C7E70225C5E70325C3E7002384F82F34CD
:109E4000D2E7012384F831300023C4E91063C4F859
:109E50002034022384F83C308023A4F84830A378CF
:109E6000002B5DD1636B002B6BD1002068E00223D7
:109E7000002A84F8313014BF0723032384F83C30D0
:109E80002369A4F848300023C4F82034E36826642A
:109E90006364E4E763696364A369A4F8483012B1BA
:109EA000062384F83C306379B3B194F82E349BB91F
:109EB00094F8303483B1022384F8503004212046D2
:109EC000FFF7A5FE0028CAD1052384F8313004F538
:109ED0008263C4F82034C2E70323F6E7E3696364CE
:109EE000236AA4F8483012B1062384F83C30637921
:109EF00083B194F82E346BB994F8303453B1022303
:109F000084F8503004212046FFF781FE0028A6D1B6
:109F10000623DAE70423D8E7002384F831309EE7EC
:109F2000D4F820142A4604F15400FFF76CFE38B927
:109F300094F8301094F85400FFF767FE002891D091
:109F4000F8BD94F8310098478FE70820F8E70388B8
:109F5000112B10B50C460AD0262B1FD0102B05D183
:109F6000C37B012B02D18388A1F8243410BD0022C9
:109F7000838881F82E24B1F824249A42F6D10B79F3
:109F8000002BF3D101212046FFF7D7FE0028EDD0AA
:109F9000A36B002BEAD0BDE810401847037A013BC1
:109FA000012BE3D8897805230131B1FBF3F303EBEF
:109FB0008303C91AC9B2E6E775DF704776DF7047D9
:109FC0007ADF70477BDF7047034B1A8882420CBFF1
:109FD00018460020704700BF903C0020024B9B6950
:109FE00003B11847704700BF743C002073B585B2B9
:109FF0002846FFF7E9FF044638B3174E027A337B51
:10A000009A420CD200F10A012846FFF7D5FFF0B1C1
:10A0100011281AD002B0BDE87040FFF7DFBF00235F
:10A020000372337C43B13B212846FFF7C7FF30F072
:10A03000080301D0FFF7D2FF736933B100228DF816
:10A040000420ADF8065001A8984702B070BD237AED
:10A0500001332372F9E700BF743C002037B50B468B
:10A06000497A0F4A79B9D2E901141D7A0246002DC6
:10A0700018BF21465868FDF7B7FB78B103B0BDE8BB
:10A080003040FFF7ABBF00211972536933B1012291
:10A09000ADF806008DF8042001A8984703B030BD44
:10A0A000743C00204B8802889A4212D842889A4217
:10A0B0000FD380888B8840F2F311884294BF021A34
:10A0C000421A9A4205D80844984234BF0020012021
:10A0D00070470020704700000388122B70B50146BE
:10A0E00059D004D8102B1ED0112B44D070BD502B4A
:10A0F000FCD12F4BC288DB899A42F7D1038A022B0D
:10A10000F4D186883046FFF75FFF05460028EDD082
:10A1100001F1120000F07FF938BB6868FDF7B4FB6D
:10A120000028E3D009E0C37B012BDFD14FF6FF709D
:10A13000FFF74AFF054620B90420BDE87040FFF74D
:10A140004DBF1C4A8E880680002303721368C0F836
:10A150000A305368C0F80E3010310A30FFF7A2FF02
:10A16000134B6872DB89002BC0D129463046BDE80D
:10A170007040FFF773BF8088FFF726FF0446002872
:10A18000B4D04068FDF780FB08B1FFF727FF4FF61A
:10A19000FF732380AAE786883046FFF715FF054640
:10A1A0000028A3D008310A30FFF77CFF6872DCE793
:10A1B000743C0020A43C0020F8B5064648B3054690
:10A1C0000FCD154F3C460FC495E8070084E8070003
:10A1D0003068124C3C60B0B1FFF7F2FEC0B9326893
:10A1E00013682360536863600D480E4A4FF6FF738F
:10A1F00003800D4B40F8043F0021FDF7C7FA00280B
:10A2000018BF032004E02046FFF7DCFE0028EBD057
:10A21000F8BD0E20FCE700BF743C0020A43C0020E9
:10A22000903C0020ED9F0200B03C00200AB1FCF7FA
:10A23000FBBEFCF702BF73B50191019C06466CB1F1
:10A2400000252C46294601A8FCF701FF18B106EBB2
:10A25000440301349D800135142DF3D13046346020
:10A2600002B070BD2DE9F04703888488103B8CB0A4
:10A2700005460A2B21D8DFE803F0064020202020E5
:10A28000202020654700DFF8E880D8F80830DB435D
:10A290000093D8F804106846FCF705FF009901A860
:10A2A000FFF7C9FF0DF108090027019B9F4207D363
:10A2B000132C12D90420FCF7F9FC0CB0BDE8F08790
:10A2C00039F802AB00260136514608EB8600FCF750
:10A2D000B4FE1E2EF7D10137E7E71F482146FCF7F1
:10A2E000A3FE1E482146FCF79FFEEB7B022BE4D128
:10A2F0001B482146FCF798FEDFE7174821460CB0C3
:10A30000BDE8F047FCF799BE027A16483F2A4FEAAB
:10A310001215214694BF00220122FFF787FF022D6C
:10A3200094BF0022012210482146FFF77FFF012D34
:10A330000E4894BF0022012221460CB0BDE8F04730
:10A34000FFF774BF037A002BB7D1427A0548C2F3F6
:10A35000C0022146F1E700BFD83C0020D43C0020D9
:10A36000DC3C0020E83C0020E43C0020E03C0020F5
:10A37000D03C00201328014602D80248FCF767BEF3
:10A3800000207047D43C002010B50446FFF7F2FFD0
:10A39000002814BF2046142010BD70B5054616468F
:10A3A00008460AB90E2070BD00231360002DF9D0B5
:10A3B0002B68002BF6D0EB8813F003040ED1FFF7C7
:10A3C000E3FFC0B214280BD02B7983420AD9EA8864
:10A3D0002B6800FB023030602046E4E70720E2E70C
:10A3E0000520E0E70420DEE7AADF704700230138FC
:10A3F0000B70042806D8DFE800F00306080A0C00FA
:10A4000011230B7070472123FBE73123F9E7122357
:10A41000F7E72223F5E7008800F001007047F0B568
:10A420008B7891B00C46012B38BF012300278DF8A3
:10A430000E3005460B88607CADF80C306946ADF8EF
:10A4400000708DF80270FFF7D1FFA07C0DF10101C3
:10A45000FFF7CCFF1646237BE27B217D43EAC20354
:10A46000227C43EA02139DF80220B94222F019022D
:10A4700003F0190314BF02210121134361F34203C6
:10A480001C22394609A88DF8023002F0B4F9637B2A
:10A4900013F0300F14D00DF10901E07CADF8087015
:10A4A0008DF80A70FFF7A2FF11238DF808309DF890
:10A4B0000A30012102AA61F342038DF80A300E929C
:10A4C000637B8DF82430A37B8DF825300023CDE904
:10A4D0000633089303AB0493A388ADF81C30A3683C
:10A4E000CDF814D01BB1E288ADF818200893A36909
:10A4F00073B301A90022ADF804208A701A88ADF860
:10A500002C205A88ADF82E205A680D91187B0A929B
:10A51000FFF76CFFA3690DF10501587BFFF766FF9C
:10A52000A3699A7A197A41EAC201DA7A9B7B41EAF5
:10A5300002119DF80620002B01F0190122F01902EA
:10A5400014BF02230123114363F342018DF8061067
:10A55000E36903B10C93334604AA09A92846FFF71F
:10A5600043FF11B0F0BD90DF7047A5DF7047B5DF46
:10A57000704700007FB50023ADF80810ADF80A1051
:10A580006A4602A90646ADF80C30ADF80E300093CD
:10A59000ADF80430FFF7E7FF054600B3114B124C4E
:10A5A000E41AE408FDF7D6F8240444F00104034655
:10A5B0000E4932462046FCF714FABDF80020BDF8DB
:10A5C000023052EA030103D009492046FCF709FA98
:10A5D000BDF804201AB107492046FCF7F9F92846CE
:10A5E00004B070BD70CF0200B8CF0200BCD702002B
:10A5F00006D8020045D8020080B14FF0F71303607F
:10A60000FB230371F723C3801723038141F6FB3239
:10A610000023016143818281184670470E207047F4
:10A6200030B1A1F11703E02B04D80180002070475E
:10A630000E2070470720704713B5034680880C46EC
:10A64000B8B91A88242A00F09C8014D8112A74D032
:10A65000232A00F0A780102A3ED0A37A4BB1E188CC
:10A660000020FFF782FF002840F0A2804FF48073A3
:10A67000638102B010BD3A2A68D0552AEDD1DB883B
:10A68000C988A072172B38BF17238B4228BF0B46EF
:10A690002381FFF76CFF60B1FDF75CF84E4B4F492B
:10A6A00002464F481B1ADB081B0443F00100FCF76D
:10A6B0008FF9E27A002AD0D12369002BCDD040F661
:10A6C0007721ADF802202289ADF80010ADF8042002
:10A6D000694620469847C0E7DB7B0A790A73012B5D
:10A6E00013D0022B14D0E18823898B4205D200209D
:10A6F000FFF73BFF70B90123E372217B637B8B4241
:10A70000ABD20020FFF736FFA7E70B88E380EAE72C
:10A710004B88FBE7112802D10123A372EDE7FDF777
:10A7200019F82D4B2F4902462D481B1ADB081B0434
:10A7300043F00100FCF74CF9DFE7F723CB80172348
:10A740000B8141F6FB3348818B8186E75B89CA88A0
:10A75000934228BF1346172B0A6938BF17230B8172
:10A7600062B1C97A51B140F67721ADF80010ADF869
:10A770000200ADF80430694620469047002363810B
:10A780006BE71A7A0B694A73002B3FF466AF4DF6FC
:10A790007A218DF80500ADF80010ADF802008DF8B3
:10A7A000042095E7197A237B994228BF1946A9E727
:10A7B00011283FF45EAFFCF7CDFF074B0949024675
:10A7C00007481B1ADB081B0443F0010002B0BDE878
:10A7D0001040FCF7FDB800BFB8CF0200CCD8020093
:10A7E00070CF02009BD80200B0DF704766DF704771
:10A7F00010B5002104464088FFF7F8FF034608B96A
:10A80000237210BD112801D10123F9E76368BDE867
:10A810001040184760B159B10378DE2B0AD00B689D
:10A820004360DE2303704FF6FF73438000207047C0
:10A830000E2070470820704728B10378DE2B04D122
:10A840004180002070470E20704708207047F0B507
:10A85000054685B00C46002942D0002840D00B7830
:10A86000DE2B3DD182884B889A4204D10B7A13B1FA
:10A870000846FFF7BDFF2B88112B33D0512B0FD08B
:10A88000012B2DD12B7A012B2AD1A98862889142E4
:10A8900026D12046237205B0BDE8F040FFF7A8BFDF
:10A8A000AE886388B3421BD1AF79022F18D1AD7B3C
:10A8B0002B1F022B14D800211022684601F09BFFA9
:10A8C000052D18BF4FF4C0736946304618BFADF868
:10A8D00004308DF80070FFF787FF08B16368984770
:10A8E00005B0F0BD6388AA889A4204BF4FF6FF7393
:10A8F0006380F5E7A8DF7047ADDF7047AEDF7047D4
:10A9000062DF7047F0B505468BB00C4600295FD07A
:10A9100000285DD00388502B35D0572B6CD0102BDE
:10A9200056D181886069002601AA0196FFF735FD9E
:10A9300002232189A888ADF80A6002AACDF80CD0BC
:10A94000ADF80830FFF7D8FF002841D1A369002BEC
:10A950003ED00398FFF75FFD002839D0019E0EB16D
:10A96000012333701822002104A801F044FF0223C0
:10A970008DF81030AB88ADF81830A36905940796B0
:10A9800004A8984724E08188606902AAFFF705FDC2
:10A990001822002104A801F02EFFAB882189ADF810
:10A9A0001830EB88029A05949942079217D12E8AA3
:10A9B000022E14D162B105F11200FFF72CFD029BAB
:10A9C00040B101221A708DF81060A369002BD7D115
:10A9D0000BB0F0BD187003238DF81030F5E7A28995
:10A9E0009A42F5D1A369002BF2D005F11202089228
:10A9F0002A8AADF82420C3E78188606902AAFFF79C
:10AA0000CCFC01460028E3D1029F3B78002BDFD02D
:10AA1000A669002EDCD0182204A801F0ECFE012368
:10AA20008DF81030AB880594ADF81830079704A85E
:10AA3000B047CDE7F0B53A4B8FB002AD04460A46B9
:10AA400003F1100C2F46186859682E4603C60833C8
:10AA500063453546F7D1002C5FD0002A5DD01368DE
:10AA6000A36121463846FFF74BFF002853D1224609
:10AA7000012512F8023B8DF8063001A92846ADF8F1
:10AA80000450FFF737FF002845D10146202206A8D1
:10AA900001F0B1FE22460223ADF8183012F80C3B4B
:10AAA0008DF81A30BDF824301E4E6088079623F4C6
:10AAB0004F6323F00F0343F440632B4306A9ADF823
:10AAC00024308DF829508DF82A50FFF7A8FC10BBD0
:10AAD0000146202206A801F08EFE22460323ADF88F
:10AAE000183012F8043B8DF81A30BDF82430608815
:10AAF000079623F4875323F01F0343F480532B431B
:10AB0000ADF8243006A940F201138DF82950ADF8B4
:10AB10002A30FFF784FC0FB0F0BD0E20FBE700BF2A
:10AB200010D90200F4000100F0B50F4687B01646B8
:10AB30001C46054610B3406901AA1946FFF72DFCD3
:10AB4000D0B94FF6FF739C421AD0019BC3B11B785A
:10AB5000C3B13388F42B17D8AB88CDF80B008DF830
:10AB60000F00ADF8083002A901232046CDE90467A3
:10AB70008DF80A30FFF7C2FE07B0F0BD0E20FBE7EC
:10AB80000520F9E70820F7E70720F5E710DF704711
:10AB900013B5044609496846FCF7A7FD019808B9B2
:10ABA00002B010BDD0E900212046904718B1684698
:10ABB000FCF7A5FDF2E71120F2E700BF2CD9020057
:10ABC00013B5044607496846FCF78FFD019B0BB996
:10ABD00002B010BD2046D3E9002190476846FCF73B
:10ABE0008EFDF3E744D902000B4991F816335A0958
:10ABF000EC231341DB0706D5084B9A683AB94FF4AA
:10AC000080030B60704742F20200FCF74FB81A68ED
:10AC100042F480021A60704700E100E070310020C9
:10AC2000F7B5194F3C7864BB184E012520463570A6
:10AC3000FFF7AEFF112821D02046FFF7C1FF144BCC
:10AC40008DF80340186801900DF10300FCF7B2F98C
:10AC5000104901A8FFF79AFF0446B0FA80F04009B6
:10AC600038709DF80300FCF7C9F93CB90A4B347001
:10AC70001C70FFF7B9FF2846FFF7A2FF204603B07C
:10AC8000F0BD0824FAE700BF4D3D00204C3D0020F8
:10AC900028D90200C96C02004E3D0020014B1878F3
:10ACA000704700BF4D3D002007B508496846FCF7D6
:10ACB0001CFD019B13B903B05DF804FBD3E9002030
:10ACC00090476846FCF71BFDF3E700BF38D9020048
:10ACD00060DF704769DF704761DF704730B5134D43
:10ACE000ADF5017D4FF4FA740DF1020103A8ADF842
:10ACF0000240FFF7F1FF70B9294601A8FCF7F5FC07
:10AD0000029B002BF0D003A8D3E90021904701A8B3
:10AD1000FCF7F5FCF4E7052805D00DF5017DBDE84D
:10AD20003040FBF7C3BF0DF5017D30BDCCDB020029
:10AD3000024B1B780BB1FFF7D1BF70474F3D00208E
:10AD400030B5054685B00C46002900F0A4800023EC
:10AD5000CDE90133514A039301230A608DF80400C1
:10AD60008DF8063001A906232020ADF80830FFF742
:10AD7000B1FF60B1FCF7EEFC494B4A4902464A4834
:10AD80001B1ADB081B0443F00100FBF721FE002324
:10AD9000CDE9013303932268012301A940208DF8F6
:10ADA0000530FFF797FF60B1FCF7D4FC3C4B3F49FF
:10ADB00002463D481B1ADB081B0443F00100FBF769
:10ADC00007FE0023CDE90133039322688DF8045078
:10ADD000F72301A92320ADF80630FFF77BFF60B110
:10ADE000FCF7B8FC2E4B324902462F481B1ADB08F1
:10ADF0001B0443F00100FBF7EBFD00230120226858
:10AE0000039301A9CDE901338DF80400FFF762FF38
:10AE100060B1FCF79FFC224B2649024622481B1AD0
:10AE2000DB081B0443F00100FBF7D2FD0023CDE952
:10AE3000023322684FF4B06301A9A1200193FFF708
:10AE400049FF60B1FCF786FC154B1B4902461648CA
:10AE50001B1ADB081B0443F00100FBF7B9FD0025BA
:10AE60002268039501A9A020CDE90155FFF732FF23
:10AE7000034668B1FCF76EFC094B104902460A48CC
:10AE80001B1ADB081B0443F00100FBF7A1FD2B4656
:10AE9000184605B030BD0E23FAE700BFD82A0020BF
:10AEA000C8CF020050D9020070CF020096D902002C
:10AEB000E2D9020029DA020075DA0200C6DA0200DD
:10AEC00073B505460668FFF703FF2B68B3420446D7
:10AED0001DD91A481A4B1B491B1ADB081B0443F0E7
:10AEE00002000190FBF770FD2B681749019832466C
:10AEF000FBF777FD4FF080532A68D3F80C311349E4
:10AF000001989B0203F100539A1AFBF761FD2CB9DB
:10AF10000F4B01221A70204602B070BD2046FCF78C
:10AF200019FC074B0B49024604481B1ADB081B049B
:10AF300043F00100FBF74CFDEDE700BF70CF0200CE
:10AF4000C8CF020019DB020048DB020079DB0200F7
:10AF50004F3D0020A3DB02004BDF70471FB50E4CB6
:10AF600001A8FFF7F9FF70B9214602A8FCF7BDFB65
:10AF7000039B002BF4D00198D3E90021904702A84D
:10AF8000FCF7BDFBF4E7052804D004B0BDE8104091
:10AF9000FBF78CBE04B010BDE4DB020008B5064B25
:10AFA0001B6803B19847FFF77FFE4FF0FF31012088
:10AFB00000F0BAFEF7E700BF543D002007B50023BC
:10AFC0000193094B01A9186800F0E2FE019B43B10F
:10AFD000064B4FF080525A6040BFBFF34F8FBFF314
:10AFE0006F8F03B05DF804FB503D002000ED00E0E2
:10AFF00007B5114A1060114A019202220B460092D5
:10B000000F4910484FF4807200F016FB01280FD052
:10B010000D4B0E480E49C01AC008000440F0010054
:10B02000FBF7D2FC042003B05DF804EBFBF73EBE57
:10B0300003B05DF804FB00BF543D0020503D0020EC
:10B04000F0DB02009DAF020070CF0200D0CF020003
:10B05000F4DB020000F108034FF0FF32C0E90223E5
:10B06000436003610023036070470023036170475E
:10B0700043684B609A688A609A6851609960036877
:10B08000086101330360704730B50C68631C0AD156
:10B0900003695A684A6091608B605960036808616F
:10B0A0000133036030BD00F1080213465268156891
:10B0B000A542FAD9EDE7D0E9011203698A6051602F
:10B0C0005968814208BF5A60002202611A68013A39
:10B0D0001A601868704710B5044601F011F9A46BA6
:10B0E00001F018F9B4FA84F0400910BDF8B515461E
:10B0F000026C866B044652B9076847BB406800F093
:10B10000D9FD676005460136A6632846F8BD65B9D6
:10B11000806801F047FBA368226C13446268A36057
:10B120009342F0D32368A360EDE7C06801F03AFBD7
:10B13000226CE36851429B1A2268E36093423EBF4F
:10B1400063685B18E360022D01D116B1013E002552
:10B15000D9E73546D7E7034610B41A6C08466AB1FA
:10B16000DC68596814448C4228BF1968DC6028BF29
:10B17000D960D9685DF8044B01F014BB5DF8044B4D
:10B18000704770B5044601F0BBF894F8455004F1DF
:10B1900024066DB2002D14DCFF2384F8453001F045
:10B1A000B9F801F0ADF894F8445004F110066DB20E
:10B1B000002D12DCFF2384F84430BDE8704001F01C
:10B1C000A9B8636A002BE7D0304600F0D3FC08B181
:10B1D00000F040FD013D6DB2DCE72369002BE9D0B2
:10B1E000304600F0C7FC08B100F034FD013D6DB2FF
:10B1F000DEE7000038B504460D4601F081F8D4E9D9
:10B200000F312268A2604B43D0185B1A1344606070
:10B21000E3600020FF23A06384F8443084F84530C5
:10B220009DB923696BB104F1100000F0A3FC40B19B
:10B230000A4B4FF080525A6040BFBFF34F8FBFF3AD
:10B240006F8F01F067F8012038BD04F11000FFF79F
:10B2500001FF04F12400FFF7FDFEF2E700ED00E03E
:10B2600070B50646484348300D4600F091FF04464D
:10B2700048B155B100F14803C4E90F6523600121CD
:10B280002046FFF7B7FF204670BD0346F4E70000F5
:10B290002DE9FF474FF00008DFF8F8A001920446BF
:10B2A0000F461E46C14601F02BF8A26BE36B9A4293
:10B2B00001D3022E1AD1324639462046FFF716FF37
:10B2C000636A1BB104F1240000F054FC40B1314B1F
:10B2D0004FF080525A6040BFBFF34F8FBFF36F8F64
:10B2E00001F018F8012004B0BDE8F087019D1DB9F8
:10B2F00001F010F80020F6E7B8F1000F02D102A823
:10B3000000F074FC01F006F800F09EFA00F0F8FF7F
:10B3100094F84430FF2B08BF84F8449094F84530EB
:10B32000FF2B08BF84F8459000F0F4FF01A902A8A4
:10B3300000F068FC38BB00F0E3FFA26BE36B9A42BD
:10B340000FD100F0E7FF019904F1100000F0EEFBCF
:10B350002046FFF716FF00F00BFB50B14FF001083D
:10B36000A1E700F0D7FF2046FFF70BFF00F000FB3E
:10B37000F4E74FF08053CAF8043040BFBFF34F8F5B
:10B38000BFF36F8FEAE72046FFF7FBFE00F0F0FA0D
:10B39000B0E700BF00ED00E0F8B504461746EFF354
:10B3A0001186402282F31188806BE26B904201D3B8
:10B3B000022B1ED194F845501A466DB22046FFF775
:10B3C00095FE6B1C10D1636A0BB9012009E004F1F2
:10B3D000240000F0CFFB0028F7D0002FF5D001208B
:10B3E000386086F31188F8BD01356DB284F8455098
:10B3F000EBE70020F5E700002DE9F04385B00027DA
:10B40000DFF8E490019204460E46B84600F078FF5B
:10B41000A56BDDB131462046013DFFF79CFEA563DB
:10B4200023696BB104F1100000F0A4FB40B12E4B76
:10B430004FF080525A6040BFBFF34F8FBFF36F8F02
:10B4400000F068FF012005B0BDE8F083019D1DB943
:10B4500000F060FF0020F6E717B902A800F0C6FB75
:10B4600000F058FF00F0F0F900F04AFF94F8443083
:10B47000FF2B08BF84F8448094F84530FF2B08BFA9
:10B4800084F8458000F046FF01A902A800F0BAFB4D
:10B49000F8B92046FFF71FFEA8B1019904F1240076
:10B4A00000F044FB2046FFF76CFE00F061FA40B963
:10B4B0004FF08053C9F8043040BFBFF34F8FBFF344
:10B4C0006F8F0127A2E72046FFF75BFE00F050FADE
:10B4D000F7E72046FFF755FE00F04AFA2046FFF74F
:10B4E000FAFD0028EDD0B5E700ED00E0054B1A6845
:10B4F00012B19A682AB9012243F8321003EBC20351
:10B5000058607047583D002070B504460D461646F9
:10B5100000F0F6FE94F84430FF2B04BF002384F8BB
:10B52000443094F84530FF2B04BF002384F84530A5
:10B5300000F0F0FEA36B2BB93246294604F124003B
:10B5400000F004FB2046BDE87040FFF71ABE000083
:10B55000F8B51A4B1A4E1D680446306804300F4681
:10B56000FFF7A9FD40B932681649D06A0B6801227D
:10B57000824023EA02030B60631C07D137B13168B4
:10B580001148BDE8F8400431FFF772BD33682C194B
:10B590005C6007D30D4B18683168BDE8F840043192
:10B5A000FFF772BD0A4B186831680431FFF76CFD74
:10B5B000084B1A68A24288BF1C60F8BD3C3E0020C0
:10B5C000683D0020C43D0020143E0020703D002056
:10B5D0006C3D0020F43D0020094B0A4A1B681268AC
:10B5E000D06A58B9084A1268012A08D8012B06D82F
:10B5F000064B1868064B1B68C01A7047002070473E
:10B60000C43D0020683D0020743D0020F43D002032
:10B610003C3E0020064A13681968064B19B94FF0E2
:10B62000FF321A6070471268D268D2685268F8E731
:10B630006C3D0020F43D00202DE9F84F95000746B1
:10B6400028460E46984600F0A3FD8146002800F0EB
:10B650009E804C2000F09CFD0446002800F0948061
:10B66000C0F830902A46A521484601F0C4F8D4F825
:10B6700030B0731E04F13402043613F8011F02F8CF
:10B68000011B09B19E42F8D10A9E022E28BF022654
:10B690004FF0000A04F10409C4E90F6AE662484663
:10B6A00084F838A0043DFFF7E0FCC6F1030604F17E
:10B6B00018005D44FFF7D9FCC4F844A02461A661DA
:10B6C000646284F848A04246394625F0070000F03D
:10B6D000DFFD0B9B206003B11C6000F011FE324BBC
:10B6E000324E1A68324F01321A603268002A51D144
:10B6F00034601B68012B1FD12E48DFF8E8802E4DE7
:10B70000FFF7A8FC2D48FFF7A5FC2D48FFF7A2FC8A
:10B710004046FFF79FFC2846FFF79CFC2948FFF7AF
:10B7200099FC2948FFF796FC2848FFF793FC284B23
:10B73000C3F80080274B1D60274A28491368086812
:10B7400001331360E26A012505FA02F303430B603B
:10B75000184B142000FB02304946FFF789FC00F02B
:10B76000D9FD3B686BB13368DA6AE36A9A4208D262
:10B770001B4B4FF080525A6040BFBFF34F8FBFF357
:10B780006F8F2846BDE8F88F484600F029FD4FF03E
:10B79000FF35F6E73B68002BCED13368DA6AE36AFF
:10B7A0009A4298BF3460C7E7B03D0020683D002052
:10B7B000103E0020743D0020DC3D0020883D00202C
:10B7C0009C3D0020FC3D0020283E0020143E00202F
:10B7D0006C3D0020703D0020C03D0020C43D002095
:10B7E00000ED00E0C83D002013B5114B019300248B
:10B7F00010491148009423463C22FFF71DFF012801
:10B8000013D100F059FB01280FD1402383F3118895
:10B810000A4B4FF0FF321A60094B1860094B1C604D
:10B8200002B0BDE8104000F045BD02B010BD00BF41
:10B83000F03D002022DC02004DBA0200F43D002061
:10B84000103E00203C3E0020024A13680133136082
:10B85000704700BFBC3D0020014B1868704700BF17
:10B860003C3E0020014B1868704700BF3C3E002062
:10B87000024A136818441060704700BF3C3E002025
:10B880002DE9F84F2F4B1B68002B54D12E4B1D6810
:10B8900001351D605DB92D4A2D4B11681868106087
:10B8A0002C4A1960136801331360FFF7B3FE2A4F67
:10B8B0003B68AB424FF0000607D9284B1B68002BB2
:10B8C0000CBF30460120BDE8F88FDFF88090DFF82C
:10B8D0009880DFF898A0D9F800301B681BB94FF0AA
:10B8E000FF333B60E9E7D9F80030DB68DC68636868
:10B8F0009D42F6D304F1040B5846FFF7DCFBA36A24
:10B900001BB104F11800FFF7D6FBE26AD8F800106B
:10B910000123934014200B4300FB02A05946C8F8B2
:10B920000030FFF7A5FB0E4BE26A1B68DB6A9A4208
:10B9300028BF0126CFE70B4A1368013313600026A6
:10B94000BBE700BFBC3D00203C3E00206C3D00201A
:10B95000703D0020F83D0020F43D0020403E0020D6
:10B96000683D0020B83D0020C43D0020743D00200B
:10B970002DE9F34100F0C4FC2B4B1A68013A1A6020
:10B980001C6834B1002400F0C5FC204602B0BDE8BC
:10B99000F081264B1B68002BF4D0254D254EDFF897
:10B9A000A8801FE0EB68DC6804F11800FFF783FB58
:10B9B000211D08460191FFF77EFBE26A306801997C
:10B9C000012707FA02F30343142000FB02803360CF
:10B9D000FFF74EFB184BE26A1B68DB6A9A4201D301
:10B9E000164B1F602B68002BDCD10CB1FFF712FE49
:10B9F000134D2C6844B1114E0127FFF741FF00B1F0
:10BA00003760013CF9D12C600C4B1B68002BB9D07E
:10BA10000C4B4FF080525A6040BFBFF34F8FBFF3C3
:10BA20006F8F0124AFE700BFBC3D0020B03D002078
:10BA3000FC3D0020C43D0020683D0020403E002029
:10BA4000B83D002000ED00E0743D0020F8B51B4C2F
:10BA50001B4F1C4E2368DBB91B4B1B68012B08D9FD
:10BA60001A4B4FF080525A6040BFBFF34F8FBFF365
:10BA70006F8FFFF7B1FD0128EBD9FFF7E5FEFFF768
:10BA8000ABFD012801D900F0A5FCFFF771FFE0E74D
:10BA900000F036FCFB68DD68281DFFF70CFB3368FF
:10BAA000013B33602368013B236000F033FC286BCB
:10BAB00000F096FB284600F093FBCBE7B43D002056
:10BAC000283E0020B03D0020743D002000ED00E045
:10BAD000114B1A68114B30B512B101221A6030BDFA
